:020000040000FA
:10000000E903022F10C73C40EE000000050000008D
:1000100000FFFF00000000012058CD3F5804000001
:10002000FFFFFFFF417373657274206661696C6541
:100030006420696E2025732C2025733A25642028BE
:100040002573290D0A00000061626F72742829204F
:100050007761732063616C6C656420617420504328
:10006000203078253038780D0A000000656E643144
:10007000203E207374617274310000002F2F4944B8
:10008000462F636F6D706F6E656E74732F626F6F46
:10009000746C6F616465725F737570706F72742FCA
:1000A000696E636C7564652F626F6F746C6F6164E9
:1000B00065725F7574696C2E68000000656E64324D
:1000C000203E207374617274320000006C6F6164B2
:1000D0005F656E64203E206C6F61645F6164647272
:1000E000000000002F2F4944462F636F6D706F6E24
:1000F000656E74732F626F6F746C6F616465725F8D
:10010000737570706F72742F7372632F6573705F85
:10011000696D6167655F666F726D61742E63000063
:1001200043616C63756C6174656420686173680019
:1001300045787065637465642068617368000000C9
:10014000626F6F746C6F616465725F7574696C5F08
:10015000726567696F6E735F6F7665726C61700050
:100160007665726966795F6C6F61645F6164647201
:10017000657373657300000068616E646C652021AF
:100180003D204E554C4C00002F2F4944462F636FA5
:100190006D706F6E656E74732F626F6F746C6F61CC
:1001A0006465725F737570706F72742F7372632FF2
:1001B000657370333263332F626F6F746C6F616479
:1001C00065725F7368612E63000000006461746192
:1001D0005F6C656E20252034203D3D2030000000FE
:1001E000626F6F746C6F616465725F7368613235E2
:1001F000365F66696E69736800000000626F6F7435
:100200006C6F616465725F7368613235365F64611B
:1002100074610000265F6273735F7374617274208F
:100220003C3D20265F6273735F656E6400000000D2
:100230002F2F4944462F636F6D706F6E656E747318
:100240002F626F6F746C6F616465725F737570702D
:100250006F72742F7372632F657370333263332F31
:10026000626F6F746C6F616465725F657370333257
:1002700063332E6300000000265F646174615F7366
:1002800074617274203C3D20265F646174615F6517
:100290006E640000626F6F746C6F616465725F6999
:1002A0006E69740062756666657220213D204E5548
:1002B0004C4C00002F2F4944462F636F6D706F6EBA
:1002C000656E74732F626F6F746C6F616465725FBB
:1002D000737570706F72742F7372632F626F6F74A7
:1002E0006C6F616465725F72616E646F6D2E630026
:1002F000626F6F746C6F616465725F66696C6C5F6E
:1003000072616E646F6D00006D6F73695F6C656E16
:10031000203C3D20333200002F2F4944462F636F8D
:100320006D706F6E656E74732F626F6F746C6F613A
:100330006465725F737570706F72742F626F6F7423
:100340006C6F616465725F666C6173682F73726352
:100350002F626F6F746C6F616465725F666C61733E
:10036000682E63006D69736F5F6C656E203C3D2085
:10037000333200006D69736F5F627974655F6E750B
:100380006D203C3D20340000626F6F746C6F6164BF
:1003900065725F666C6173685F726561645F7366E6
:1003A00064700000626F6F746C6F616465725F6689
:1003B0006C6173685F657865637574655F636F6DA5
:1003C0006D616E645F636F6D6D6F6E004D58494374
:1003D00000000000495353490000000057696E4275
:1003E0006F6E640047440000584D32355155363425
:1003F0004100000054480000CC5BCD3FC20020000B
:10040000FF92EC3C40D2EC3C4006D45BCD3F9D00DB
:100410004000CF92EC3C40D2EC3C4006DC5BCD3F50
:10042000EF004000FFA8EC3C40E8EC3C4009E45BF6
:10043000CD3FC8006000FFA8EC3C40E8EC3C400920
:10044000E85BCD3F201738FFFFF2EC3C4034ED3C39
:100450004006F45BCD3FCD006000FFA8EC3C40E8D7
:10046000EC3C400900000000FFFFFFFFFF9CEC3C5C
:1004700040DCEC3C4001000010C73C401408000088
:10048000317106DF9307000089C797000000E7007D
:100490000000912819C1EF3040259307000089C75B
:1004A00097000000E7000000EF30C0201306000AAC
:1004B000814508089740C3FFE78000C10808EF3076
:1004C000800071D90808EF30000C9307D0F92AC6D4
:1004D000E303F5FC01459740C3FFE780208BB2455D
:1004E0000808EF304022411106C622C4EF20E06C1C
:1004F000894763E8A7028547114791460146814530
:10050000130510069750C3FFE780C01CB147014791
:100510008D46054681451305A0069750C3FFE78029
:10052000601B0545EF30E039EF202069854763FA0D
:10053000A7008947630AF5060545EF30003B0545EE
:1005400029A00145EF30603A0145EF30A03CB78764
:10055000006037371D8F9386070B1307A71298C2C9
:100560009387C70A984337060080518F98C323A00A
:100570000600492A3757CD3FB767CD3F13070771AC
:100580009387078263F4E702B766CD3F3766CD3FB6
:10059000938646A1130646A99305D0083765CD3F3B
:1005A000130505A6EF30602D054569BF3767CD3FC0
:1005B000B767CD3F130707829387478263FDE70044
:1005C000B766CD3F3766CD3F938686A7130646A90B
:1005D0009305E008E1B7CD2AB128ED2CDD2CEF30F2
:1005E000D07BEF30B06B0522EF2040262A8415ED3A
:1005F000ED2A2A841DE9212C2A8405E91D222A845A
:100600000DE59730C3FFE7806078B7070C6098432B
:100610001367070498C3D8431377F7FBD8C3B7E72A
:100620000C600D47F8C331245D24B240228522447A
:10063000410182800111014506CE22CC9730C3FFD3
:10064000E780807B01459730C3FFE7802074B14786
:100650006308F508EF4080142246370730009317EF
:100660004501B756040093868602F98FD58FB706E9
:1006700000C0F18ED58F3EC4F98F1374350063939B
:10068000E7000144EF40C019A247B706F4FFFD168A
:1006900013773500F58F13152701B706D0FFFD1628
:1006A000C98FF58F5204C18FB7060C003EC4F58F79
:1006B000B70608006393D70001472245B707F4FF48
:1006C000FD177D8DB247B705F8FF4A07FD8DB727A7
:1006D00003009387877F598DDD8D2AC49D2909A842
:1006E000EF40E057B7B7C4049387F73FE3F4A7F6AA
:1006F000F2406244B787006023A007047D57F8C723
:100700000561828091AE4111B707CE3F22C403A498
:1007100007FF06C6EF204010B24008C02244410146
:100720008280411122C43764CD3F1305848006C600
:1007300026C2EF20202CEF20A019814601468145DA
:100740001305A007EF10D072B704CE3F03A504FF36
:10075000130484809730C3FFE7808072EF103072FB
:100760006D22B73700609C47834734000D47214412
:100770009183638BE7006366F704054491C70947DB
:1007800011446383E70009440945EF30B06403A5D1
:1007900004FFC167931544010841FD1713070010BA
:1007A000856641669730C3FFE78000700945EF30EA
:1007B000F062EF20D007B24022449244014541014B
:1007C00082801147414475BF3755CD3FB767CD3F54
:1007D00013060571938707823386C7408145130549
:1007E00005711743C3FF6700238EB765CD3F4111E5
:1007F0008546614693858580014506C6EF20606E7B
:10080000B2403335A0003305A04041018280411140
:1008100006C6EF20803A3765CD3F814513058580B8
:10082000EF20A04AB2403335A0003305A04041017B
:1008300082800111B7870060938707000A8506CE82
:100840003EC222CC02C0EF30503B81450A85EF30DA
:1008500030400A85EF30F03B8146014681450A85EC
:10086000EF30300CEF3030752A840A85EF30F038E5
:10087000896793878732B335F4021306803E814639
:100880003305F4029740C3FFE78080D92A8691465A
:1008900081450A85EF30B0250A85EF30B0380A85EA
:1008A000EF30303785473EC4B7F7016093870700C4
:1008B00028003EC6EF30703428008145EF305039B3
:1008C0002800EF301035F2406244056182806F20CD
:1008D000F0048280411106C6EF20A0210145973027
:1008E000C3FFE7806051EF408037EF303074B74787
:1008F0000F0093870724B305F502B2407166130613
:100900000620014541016F206020011126CAB7046D
:10091000CE3F03A504FF06CE22CC4AC84EC652C421
:1009200056C29730C3FFE780A05503A504FF814658
:10093000494E1C41194393D8070193950701B767A6
:10094000CD3F138887BF93F8F80FC181938787BF86
:1009500003474800631617033386C6033E960347D2
:100960006600834E560022073367D701834E760018
:10097000034686002D8F22063366D601718F09C784
:1009800085064908E39666FC4947B386E6020544B6
:10099000B69783C6A70003C7970003C9C700A2067E
:1009A000D98E03C7B700620983C907014207558F73
:1009B00083C6E7003369E90003C7D700A20683CAEC
:1009C0001701D98E03C7F700E20933145401420717
:1009D000558FB3E9E9009730C3FFE780604A029979
:1009E000B37785002A8A95CF01459730C3FFE7800A
:1009F000A04D9740C3FFE780A0AA2A849740C3FF79
:100A0000E78000A9AA851375F40F6244F240D2442E
:100A10004249B249224A924A05611733C3FF67002F
:100A200023498146014681451945EF1070443365DD
:100A30008A00829903A504FF9730C3FFE7804044F2
:100A40000299698C55F0F2406244D2444249B2495D
:100A5000224A924A05618280B70700087390073BDB
:100A600093068008F3A7063AB707000A7390173B6E
:100A7000A567138707F07327073A3707000F73102E
:100A8000273B370788007326073A3706F20F7310A3
:100A9000363B370600897326063A3786F30F731004
:100AA000463B1306B0087326163A3786FC0F7310C0
:100AB000563B138607907326163A3786011073103B
:100AC000663B37068D007326163A37F60D10731005
:100AD000763B370600887326163A37860F10731058
:100AE000863B1306F0087326263A3706A0107310CB
:100AF000963B138607D07326263A370600147310E8
:100B0000A63B7326273A3716001413060680731087
:100B1000B63B3706008F7326263A37060018731047
:100B2000C63BF3A6363AB70604187390D63B9387B4
:100B300007B0F3A7373AB7070040FD177390E73BBC
:100B40007327373A7390F73BB7070090F3A7373A0C
:100B5000828039713787006022DC2AC413548500F3
:100B600013050708144193D735003746C0FF7D169B
:100B700093F7F70FF18EBA072EC606DE26DAD58F69
:100B80001CC1B247345B2245AD83370602FE7D1699
:100B900093F7F70FF18EC607D58F59813CDB13759C
:100BA000F50FEF40800E32451374F43F1D89EF407E
:100BB000C011B7E70060F843B7060400938606F05B
:100BC000558FF8C3F8438176FD16758F83448100F5
:100BD000F8C301459730C3FFE78000222685EF3038
:100BE000305837450F00130505243385A402EF3034
:100BF000D0590808EF30B04C0C102285F244EF3089
:100C0000104619E1EF2070490810EF30F05E7325AF
:100C1000207EB335A402268681463305A402974080
:100C2000C3FFE780E09F7310257EA2473707FCFFD4
:100C30001307F70FF98F22045D8CB705300022C42B
:100C4000E18DB70710006398F5020545EF30702677
:100C500081450545EF30B027224549810D89EF30A8
:100C60009038224551810D89EF30D02CF2506254DA
:100C7000D25421618280B707E0FFBE9593B515007D
:100C8000C9BF0000000000000000000000000000DC
:100C90000000000010E73C40802800006F008075D5
:100CA0009357050193F7F70F130700026391E704C9
:100CB000135785001377F70F930600049377F50F0A
:100CC0006316D700B51713B5E700828093061004AA
:100CD0006316D700A51713B5A700828093060005F9
:100CE00001456317D700AD1713B527008280014572
:100CF0008280411106C69308000263F2E802B766DB
:100D0000CD3F3766CD3F938686B0130646BA93052E
:100D1000A0213765CD3F130515B5EF10C03763FD32
:100D20000801B766CD3F3766CD3F938646B61306BA
:100D300046BA9305B021F1BFB72F006093880F002A
:100D40003703200003AF880083AE880103AEC801DB
:100D500023A4680003A38801B70200803363530013
:100D600023AC680003A30802B702007012031353F8
:100D700043003363530023A0680203A30802C17237
:100D8000337353003365A30023A0A80203A5880191
:100D9000B70200C03333B000FD127A03337555003B
:100DA0003365650023ACA8001385F5FF83A5C80152
:100DB0006A059A059981C98D23AEB80023A2C8009F
:100DC00013860F0063090800B705CE3F83A505FF12
:100DD00083C59501AE960C4EB70800E03335D000C0
:100DE000FD187605B3F51501C98D0CCE4C4EFD16D8
:100DF00093F6F60393F505FCCD8E54CE144E3705CD
:100E000000F8B335E0007D15EE05E98ECD8E14CEE9
:100E1000814601C77D179376F73F5852137707C075
:100E2000558F58D23CCE1C4EB70600F03337000128
:100E3000FD167207F58FD98F1CCE01476306080097
:100E40001307F8FF1377F73F1C5693F707C0D98FA6
:100E50001CD61C4237070400D98F1CC21C42C98310
:100E6000858BEDFF2324E601232CD601232EC6011A
:100E7000284E930700026308F800FD57B397070157
:100E800093C7F7FF7D8DB24041018280AE873287E4
:100E90003688014681468145A9BD01114EC6B70974
:100EA000CE3F03A509FF52C406CE22CC26CA4AC8AB
:100EB00056C29710C3FFE780607E03AA09FF93061E
:100EC000D00983270A0013D707011377F70F6306AA
:100ED000D7009306200C631AD706A1460146814528
:100EE00015456D37131405011375C50B418021C5D8
:100EF000137434F442044180A14A8144014952856B
:100F00009710C3FFE78080798146014681451945E6
:100F1000B53F81465686A28505458D3F631A990ADD
:100F200003A509FF9710C3FFE7804077814601467C
:100F300081451145A13FF2406244D2444249B24941
:100F4000224A924A0145056182809306800C63150E
:100F5000D70413D787001377F70F93060004631D98
:100F6000D70293F7F70F55476378F702A14601467A
:100F700081451545213F2A84A14601468145130537
:100F800050034204213741801379F50F93742500F3
:100F900005CCA14A0144A5B7A146014681451545A6
:100FA000F535AA84A1460146814513055003F93D54
:100FB00013148500458C420441809377F4DFA5DF4C
:100FC00013740420C14A15BF1379D90FE30509F63C
:100FD00003A509FF9710C3FFE780406C81460146D7
:100FE00081451945653581462146A68513051003BF
:100FF000713D3DB7914763F4B702B766CD3F3766A1
:10100000CD3F3765CD3F4111938646B7130686B86D
:1010100093053026130515B506C6EF10C0078E05DB
:101020002A8613F8850F81470147A146E14513053C
:10103000A005C1B14111E146014681451305F00902
:1010400006C6A935931705013707FF00F98F135717
:1010500005011377F70FB240D98F4167130707F0E7
:10106000798D5D8D41018280411122C43704CE3FCC
:10107000832704FF06C68843253111C50145B240C8
:1010800022444101828085454145AD371375F50FF6
:1010900093070002E314F5FE8146014681451305DE
:1010A000900BED3381460146814513059007F93BCE
:1010B0008146014681451305F00FC93B1305007DAC
:1010C0009710C3FFE780C051814601468145130553
:1010D000B00A6D3B51459710C3FFE7806050032471
:1010E00004FF893F08C06D3E7D1551BFB7370060D2
:1010F000984F1367070C98CF984B1377F7C198CB8D
:10110000984B019B98CBB7270060984F1367070C4B
:1011100098CF984B1377F7C11367070298CB984B7A
:10112000019B98CB8280B73600609846B7070C00C9
:10113000A1075D8F98C6B72600609846D98F9CC6D8
:101140008280011122CC26CA06CE4AC84EC652C49D
:1011500056C2AA849720C3FFE78040B52A8497200F
:10116000C3FFE780A0B549C4935A6400135AC40072
:10117000935924011379F50F1375F403618093FAE1
:10118000FA03137AFA0393F9F9031374F403A685A7
:101190009720C3FFE780809CA68556859720C3FFD4
:1011A000E780C09BA68552859720C3FFE780009B00
:1011B000A6854E859720C3FFE780409AD54763E810
:1011C0008700A68522859720C3FFE7802099D54711
:1011D00063E727036244F240B249224A924AA68555
:1011E0004A85D244424905611723C3FF670003972C
:1011F00035493144B949414AC54A3D4549BFF240A4
:101200006244D2444249B249224A924A05618280EC
:101210004111054506C63537B240410129B7A146FF
:101220000146814515459DB1A146014681451305FD
:101230005003A9B94111A14601468145154506C68D
:1012400022C4A9312A84A1460146814513055003D1
:1012500035392205B240418D224441018280AA8560
:101260008146214605451DB1AA85814621461305C3
:10127000100329B9AA8581464146054501B94111A6
:101280008146014681451305A00306C622C4FD3EE2
:10129000B707CE3F03A507FF9710C3FFE7800040C5
:1012A000A146014681451545D5362A848146014629
:1012B00081451145E13EB2402285224441018280B0
:1012C000411122C481462A84014681451305A003A9
:1012D00006C626C2653EB704CE3F03A504FF97109D
:1012E000C3FFE780A03BA285814621460545793EA4
:1012F00003A504FF9710C3FFE780403A2244B240A1
:1013000092448146014681451145410141B68547D8
:101310003707CE3FA308F7FC3707CE3F2308F7FC7B
:101320001713C3FF6700432B011122CC4AC806CE16
:1013300026CA2E84328921E1B70400609384040018
:101340009317C90033862741B3B7C70093564901A5
:101350009D8E9307F4FF933514003385C700B33790
:10136000F500B385B640BE959720C3FFE78000AD7A
:1013700001E9EF005054B704016093840400C9B739
:101380003309A9021204DC48FD767D15F58F13752B
:10139000F50F320533542403131704015183D98FF9
:1013A000DCC8DC48370710FF7D173D885204F98FF1
:1013B000C18FDCC8BC5C3717F0FF7D173EC6B24753
:1013C000F2406244F98FC98F3EC6B2474249BCDC45
:1013D000D24405618280411106C622C42D282A8488
:1013E0009920930740063304F402B2402295224428
:1013F00041018280B797006093870780DC5B0145DD
:10140000C9839D8B91E3828013F7170019C313459D
:1014100015008583C5BFB797006093870780A84FE5
:1014200061810D898280B797006093870780A84FFC
:10143000BC4B5181C9839D8B21893E95828041118E
:1014400022C4372400503146930504FF7D5506C65B
:101450009710C3FFE78040760327C4FFAA870145A2
:101460006395E70085073335F000B240224441011F
:101470008280411122C437240050930504FF314675
:101480007D5506C69710C3FFE7800073B240232E38
:10149000A4FE224441018280AA8511467D5517137E
:1014A000C3FF670063711841FD576307F700084DDC
:1014B000751513352500828005458280411126C2AD
:1014C00006C622C4AA84C53709EDC04C2685E93773
:1014D0003305A44013351500B24022449244410123
:1014E00082800145D5BF8347D5000347C500A207C9
:1014F000D98F15476384E7007D558280411122C44E
:1015000026C206C62A84AE84F93585462A87014557
:1015100063E69604834704010346F400A207D18FD3
:10152000B337F7003305F040639AD40283472401B0
:1015300083461401A207D58F1386F7FF4206C166C2
:101540004182F51663ECC60063FAE700B7970060C6
:1015500093870780BC43858B91E37D55B24022443D
:10156000924441018280AA877D558DCB85C983C66F
:10157000050003C7150081E615C3054582800145B6
:1015800011CF88539C4309C66376F5003E8519A0A8
:10159000E3EEA7FE1D8D3335A000828082800DC54D
:1015A000011106CE22CC2A84113F2306A100130587
:1015B00004022937A306A1006C0022850546653781
:1015C000F2406244056182807D558280B7270050D9
:1015D000C11723A0070023A2070023A4070023A606
:1015E00007008280411106C6993D01C5372500508C
:1015F0004115B24041018280411122C406C62A84AD
:1016000085C1353D11E1D937B7270050138707FF52
:1016100083D787FF8507C207C18399C32314F700C7
:1016200001C81840B7270050C11798C35840D8C305
:101630002244B240410135BD8547630AF500894720
:10164000630AF5003335A0003305A0408280196598
:1016500005058280196509058280130500088280CE
:10166000797126D2B754CD3F83C7C47106D622D430
:10167000A9EFB70780002A84014563E3B704C17668
:10168000E18E158C3307B40036C61306F7FF3AC453
:101690006378F6020945EF10A0752247B2467C0830
:1016A0003706003C8545014502CEEF1080670945AD
:1016B000EF10807485473705003C238EF470229527
:1016C000B25022549254456182800145D5BF4111E8
:1016D00022C43754CD3F8347C47106C689CF09451C
:1016E000EF100071EF10E05BB767CD3F7D57230E21
:1016F000047023A0E782B2402244410182805D71E0
:10170000A6C2B364A600CD8C86C6A2C4CAC04EDEF3
:1017100052DC56DA5AD85ED662D48D88C5EC2A8956
:101720002E8AADCE719A416B3304A600AA89417C02
:10173000B76BCD3F7D1B631F3401B640264406497D
:10174000F259625AD25A425BB25B225C26859644B9
:101750006161828083A70B82B3FA89016384FA02F4
:101760000945EF10E06801457C085A87D6863706A0
:101770007F3C854502CEEF10C05A094523A05B830C
:10178000EF108067B7067F3CCE96B38656419842ED
:10179000B3872941D29798C3910971BF094532C6D1
:1017A000EF1000653246D2854A859710C3FFE78067
:1017B00020F12A840945EF10206422852644B64092
:1017C00096440649F259625AD25A425BB25B225C95
:1017D00061619DB5FD5495B7411106C69710C3FFD1
:1017E000E78080EDB240410181BD011122CC26CAC3
:1017F00006CE2A84B684914799C2930700023377B4
:10180000F40215EFB377F60213F7350032C62EC493
:10181000D98F95E7EFF06FE805E5A24532462285BE
:1018200091C89710C3FFE780A0E76244F240D2441A
:10183000056119B59710C3FFE78040E8FDB77D55F6
:10184000F2406244D244056182808146014681456E
:1018500011456FF0AFE311C905668147B7680260B3
:101860001306F63F6395B7028280B766CD3F3766B1
:10187000CD3F3765CD3F4111938646AA130606AF8B
:101880009305B0021305C5AD06C6EF00D00013F7EF
:10189000370091C305E39386080B94427323207E9F
:1018A00003A8080BB3C606017328207E33086840DE
:1018B000E37806FF0E073308F50033D7E600230070
:1018C000E800850745B741118147194799461D46EC
:1018D00081451305900606C69720C3FFE780406147
:1018E000B7070460D843B70600FFFD16758FD8C34D
:1018F000B84BB24006070583B8CB944F37070001B9
:101900007D17D98E94CFD44F558FD8CFF84BB706CB
:10191000F0FFFD16758FF8CB9843B70600E8FD166B
:10192000758F98C3378700601307C7111C438A0758
:1019300089831CC341018280B78700609386C711E9
:1019400098424111370600C006C622C4518F98C282
:10195000D85B370440009946418FD8DB1D46854748
:1019600019478145130590069720C3FFE78040582B
:101970008147014785461D468145130590069720FE
:10198000C3FFE780E05681470D478D461D468145E0
:10199000130590069720C3FFE780805581470947CC
:1019A00089461D468145130590069720C3FFE780B1
:1019B0002054B7070C60984BB7060010370600019B
:1019C000558F98CB984FB70600F0FD16758F98CFBE
:1019D000B7070460F84BB706A0FFFD16758F418F5F
:1019E000F8CBF84BB7061000558FF8CB9843B706E5
:1019F00000181367070498C39843558F98C39843FA
:101A0000E1769386F607758F1367070898C3D84762
:101A1000C1769386F60F758F856693860680558FFF
:101A2000D8C7D847B70601FFFD16137707F013672D
:101A30005700D8C7D847758FB7066400558FD8C7E9
:101A40009843B7068000558F98C39843B70680FF28
:101A5000FD16758F98C39843B786FCFFFD16758FEA
:101A600098C3984FB70600FF758FB7069D00FD1607
:101A7000558F98CFD84F9306F6FF558FD8CFD843C0
:101A8000B71600FFFD16758FB7460600558FD8C3F1
:101A9000F84BB7060080B240137707F01367F700E2
:101AA000F8CBD8432244799BD8C3B84B558FB8CBD9
:101AB000D843518FD8C3410182805C4191CB411101
:101AC00006C6EF00D059B24013351500410182809F
:101AD00001458280FD574111639AF5001C453EC4C3
:101AE0005C453EC62245B24541018280F957639666
:101AF000F5001C493EC45C49EDB7BD4763ECB70037
:101B00008327850963D8F5008E052E95184D5C4D09
:101B10003AC4C1BF81470147E5BF9377650381C7D9
:101B2000411106C6492B37470C6054439377150083
:101B300093C7F7FFF58F5CC35C430981098913459F
:101B4000F5FF7D8D48C38280011126CAAA8413D572
:101B5000C50022CC06CE2E8432C6BD39B24611E96C
:101B600022856244F240A685D24413060002056134
:101B7000ADB9F2406244D24405618280797122D4C9
:101B800026D206D6AA842E8463CE0502B757CD3F4F
:101B900083C7077185CB71469305F00F48009710F6
:101BA000C3FFE78020D4930714003EC00A8589470D
:101BB0003ECCEFF07F8E2ACEEFF04F8E8C402A86FF
:101BC0000A855937A285268531372AC02EC20A8553
:101BD00085451D34B250225492544561828039713A
:101BE00006DE22DC26DA4AD85AD02A895ECE62CCBA
:101BF00066CA4ED652D456D2F9310145152B03454B
:101C000059001307C9099307C9018145814B014454
:101C1000014B814C8144014C370800C4B706800059
:101C2000B70800BE63CAA504C179094533FA340177
:101C3000832A8900E694EF10A01BEF1080067C0039
:101C400033874441B3763C0152868545014533795B
:101C5000340102C65E94EF10C00CB3763B017C00E9
:101C6000330724414A8685450145370B003CEF1078
:101C7000400B637B6A038121904333030601637B3E
:101C8000D300032C070083AC4700B28485051107FD
:101C9000A10749BF33031601E37AD3FE032B0700E4
:101CA00083AB47003284DDB7FD14B709803CE3F411
:101CB00034FD21459D35B70700427D14636DF90061
:101CC000B70780420545E378F4FA813D0945EF10F6
:101CD000A0126D2E829AE36069FBE37E34F9214500
:101CE000EDB70111856522CC938505C02A84216555
:101CF00006CE26CAEFF0DF9619E50145F2406244B0
:101D0000D2440561828070008545AA84EF00303698
:101D10006DF532469387240093050002054863471A
:101D2000C5002685EFF0BF9A0545C9BF03C7070068
:101D300019C7630E0705050593870702CDB703C7CB
:101D4000170005CB630EB702937607FFC148E394F3
:101D500016FF3D8B83A6270009070E07229714C79D
:101D600083A6670054C7032784090507232CE408CA
:101D7000D9B703A7270018C403A7670058C465BFD5
:101D800003A7270018C803A7670058C86DB703C783
:101D9000170055F303A7270018C003A7670058C012
:101DA00059BF1D71A2CC2A84084186CEA6CACAC8D2
:101DB000CEC609E97D55F6406644D6444649B64943
:101DC000256182804C40896763F5F5001305D0F9E1
:101DD000DDB7EFF0FF88AA8475D9AA851306000243
:101DE0000A859710C3FFE78020B08565A695130686
:101DF000000208109710C3FFE78000AF2685EFF0C0
:101E00001F8DB754CD3F23880470EFE03FE9624750
:101E100085472A896318F7000C4091472A860A856E
:101E20003ECC1D3362578547631AF70091473EDC6D
:101E30001C4085654A86BE95081039330A85EFF047
:101E40008FE61DE98327840985CF0A85EFF02FF5FA
:101E5000FD57E301F5F613175500930707048A971A
:101E600083A687FD83A407FC83298409B1C6138553
:101E7000F4FF3375350381B70810EFF0CFE279D165
:101E80001C448DFB0247FD576310F7020257FD57B4
:101E90006308F70072540810EFF00FE0630CA40021
:101EA00085472388F47039A072440A85EFF0CFDEAD
:101EB000E31EA4FC014501B7854623ACD7FC1C40BA
:101EC0009315C5004A86BE953305E100B53945B77F
:101ED0002D710145232E11109700C3FFE780C06CC0
:101EE0009547631EF500EFF0EFEF11C96C00EF00AE
:101EF000901711E58545EFF02FF06800CD31832074
:101F0000C11115618280411106C649221305803E28
:101F10009700C3FFE780C06C9700C3FFE780407065
:101F200001A0697123248112232291122E84AA8494
:101F30001306401081456800232611122320211327
:101F4000232E31119710C3FFE780C099F957630919
:101F5000F4022289FD59635C390383A784090504CF
:101F60006347F4046C0013850401813E19ED1306E8
:101F70004010814568009710C3FFE780A096613745
:101F80006C0013850401153E7DD968008939CA8526
:101F9000268589362AC22EC489C96C004800313E84
:101FA00009C5CA852685D93ECDB77D196DB7A285ED
:101FB00026850D362AC22EC4CDD16C004800F53CD2
:101FC00049DDA285C5B78280411106C622C497109B
:101FD000C3FFE78020C03754CD3F13050473894504
:101FE0009710C3FFE780C0BFB240130504732244BB
:101FF00041018280411106C619EDB766CD3F3766B3
:10200000CD3F938686971306C69FE9453765CD3F3A
:102010001305859B49209377360099CBB766CD3F52
:102020003766CD3F9386C69C1306C69FED45F9BF24
:10203000B2403755CD3F8146130505734101171353
:10204000C3FF6700A3BA15E1B766CD3F3766CD3F42
:102050003765CD3F4111938686971306069E9305FB
:1020600010021305859B06C63D203755CD3F89E9F3
:102070001306800D130505731713C3FF67008386CE
:10208000130505731713C3FF670083B601451703D4
:10209000C3FF6700E357B2872A863765CD3F4111FA
:1020A000368713054582AE86BE8506C69700C3FFF8
:1020B000E780005201A03765CD3F41119385D0FFE5
:1020C0001305858406C69700C3FFE7806050B7E715
:1020D0000C6083A78709898B91C3029001A0B78701
:1020E00000609386C71098429387C70A6D9B98C279
:1020F000984311C58176FD16758F98C38280B70607
:102100000200558FDDBFB78700609386C7109842E5
:102110009387870D759B98C2984311C5B706001029
:10212000558F98C38280B70600F0FD16758FD5BF16
:10213000B78700609386C7109842799B98C2D85B96
:1021400011C5B7061000558FD8DB8280B706F0FFA7
:10215000FD16758FD5BF411106C66340B502B7663F
:10216000CD3F3766CD3F9386C68613060694F94564
:102170003765CD3F1305858A393F634CD600B76676
:10218000CD3F3766CD3F9386C68B13060694FD453B
:10219000C5B7AA8701456354B60033A5D700B2403E
:1021A00041018280411122C42A84014506C697005C
:1021B000C3FFE780603F370700BE2297B706800065
:1021C000636DD702370700C42297AA87014563626F
:1021D000D70237070010636EE40015470545639A80
:1021E000E700B70700B03E9489673334F400134525
:1021F0001400B2402244410182800145DDBF1841F4
:102200008327C50D1D71A2CCBA973EC69307C50999
:102210003EC43244C167FD17CAC8DAC05EDE86CE4E
:10222000A6CACEC6D2C4D6C262DC66DA6AD86ED678
:102230002A892ECC32C0B68B130BC50102C23EC810
:10224000834759001247634FF70083270900636AE9
:10225000F4208327C90D32470145998FA297232E79
:10226000F90C25AC85462146DA852285EFF02FC989
:1022700063150522824789C72146DA853E859D3B45
:1022800083294B00832A0B0093F73900639B071CBB
:10229000B707000163F7F91CB70700BED6973707E9
:1022A0008000930C840063E7E700B70700C4D6976B
:1022B00063F8E7004247B3C79A01F98F6393071A9F
:1022C000E2478DEF014AEFF04FB9B757CD3F2ACA29
:1022D000668C138D4771930D004063990918A247CE
:1022E000210B23A097018327CBFF3384FC00924767
:1022F00085073EC2A24791073EC499B756855D3512
:102300002A8A69D1E38109FCD68D338D3A01814453
:102310006A8CE30ABDFB63D1AD0937040600B70739
:1023200038C0EE9763F0870AB70738C0FD17E29709
:102330003706060063F7C7120A85B7E5CD3FE17798
:10234000EA866E86938505713E953135631B0510CF
:10235000B765CD3F3755CD3FEA866E86938585C7F5
:1023600013050571CD3B631E050E639F040EEA86BF
:102370006E86B705CE3F3705C83FF13B29D5B70775
:1023800070003386FD00EA97D2843E8DB28D49B746
:10239000B28D370DCE3F61B7B766CD3F3766CD3FC3
:1023A0003765CD3F9386C68C130606969305901726
:1023B0001305C590CD31B70DC83F370DCE3F370C53
:1023C000CE3F9DB7B747C8BFB385FD00374606006F
:1023D00063FEC506FD17E29763F5C708B7173D40D2
:1023E0009385E7F8B7E73C40EA866E861385077168
:1023F0009D3325E9B5E8EA866E86B7053E40370588
:102400003840913BAA84E30005ECB707C8BF1387A7
:10241000F7FFEE97B305EC0063EB8700E3FD85F86B
:10242000B70790FF3E9D6A8CB70DC83FEDB5B70763
:1024300090FF3386FD00370CCE3FE3FB85F4EA972F
:10244000E354BDF532873E86BA873DBFB70700B07B
:10245000BE9D096763F7ED00FD173308FC00E364D8
:10246000E8E60965090515A8268AB1BDC247337497
:10247000FC00D2473334800033848740420463F346
:1024800089004E84631A0A02638C0B04A28562855C
:10249000EFF00F9DAA8425E17D55F6406644D644B1
:1024A0004649B649264A964A064BF25B625CD25CC4
:1024B000425DB25D25618280A2856285EFF04F9A10
:1024C000AA8479D963990B02824795E7AA85228667
:1024D00056859700C3FFE78020412685EFF02F9FA8
:1024E000229CB3898940D5BBB757CD3FA145138501
:1024F0004771EFF04FB683270D00FDD783274D00BE
:10250000E5D78147E3FB87FCB385F40098416387F7
:102510000B0083A60B00B98E23A0DB00630E0A001C
:1025200093F647009DCAB756CD3F938646719442B5
:102530003386FA00358F18C2024711CF13F7F73FE1
:1025400019EB3306F44063F4CD0013060040024556
:102550003ECE4D34F247910775B7B756CD3F9386BF
:102560004671D442F1B71D71A2CCD6C262DC86CED0
:10257000A6CACAC8CEC6D2C4DAC05EDE66DA6AD8D7
:1025800089472A8CAE8A328463E2A708854B0549C5
:10259000930C81009307F00E3EC402C6130A20106C
:1025A0006304041663820A1683A40A0083A74A0000
:1025B0003707000199C0631F0904636CF728014BBA
:1025C000014A13064010814522859700C3FFE7802A
:1025D00060319309440004C0268585466146CE8556
:1025E000EFF0EF91AA8463180516639B0B02B249C2
:1025F000E147791C232EF40CE6864E8693352C0099
:102600002285F53E2A8A35C1AA84B1A2814B0149AF
:10261000814C49B7636FF7224A8B130AC10055B743
:102620008347B40189CF630C0A00EFF0FF992320A0
:10263000AA00630305226146CE85EFF0BF9B0347E6
:1026400044009307900E631EF70085454E85EFE02A
:102650009FE9AA846311051003475400C147E3F8BA
:10266000E7F8096593042500FDA0854C630A09007D
:10267000B7E70C6083AC870993DC1C0093FC1C005B
:102680008327C40D02C802CA13890701137909FF01
:1026900002CC02CE224D3309F94063850C0A6393C4
:1026A000090A8327C40D83AA4A003E998347B401CF
:1026B000232E240D89CB639F0B0C8327C40D938796
:1026C0000702232EF40C8327C40DE3ECFAF8631001
:1026D0000B0E6387090081454E85EFF0DF9602C639
:1026E000854763E38703B754CD3F938744719C4389
:1026F0009384447191CBDC4081CB1309C40181499F
:102700008347540063C9F910F6406644D6444649ED
:10271000B649964A064BF25B625CD25C425D5285DA
:10272000264A25618280930709038A9703C7F7FD2C
:1027300063820C04E38709F64A860C084E85EFF0A5
:102740007F8B85B7084085464A860C083E95EFE0AA
:102750001FFBAA8469D9324501C58145EFF0BF8EC0
:1027600013064010814522859700C3FFE78080173C
:10277000268A59BF93578D0193560D01B58FB3C764
:10278000A701135D8D00B3C7A70193F7F70FE3030C
:10279000F7FAC1BD08408546130600029305040EF2
:1027A0004A95EFE0DFF5AA84E30905F06DB7E38908
:1027B00009F2B7E70C6083A78709898B89FF714607
:1027C0008145480802C89700C3FFE780A0110C08A4
:1027D0004E85EFF05F873766CD3F1306069293056F
:1027E00000020808EFF02FFE9304040E1306000207
:1027F0000C0826859700C3FFE780800FE30105EEF4
:102800003766CD3F13060693930500022685EFF049
:102810008FFB02C6B9B5832A09005685EFF09F9851
:102820001DE585092109E9BD13972700569713F681
:102830001700144319CA9040B18E14C385070327AB
:1028400049000983E3E2E7FEE9BFD040F5B78147DD
:10285000FDB79304201001B793041010EDBD2E8630
:10286000AA85094509B32E86AA850D45EDB9B70796
:10287000CE3F83A707FF357122CD26CB4AC94EC76D
:1028800052C556C35AC1DEDE06CF156ABD6A03AB18
:1028900047002A89B28923200600AA8401470144FF
:1028A000130AAA0A938ABABE930B000683D70400C0
:1028B000639C4701DC406366FB009444B6976375F4
:1028C000FB04130540108DA06398570539E32808D1
:1028D0009700C3FFE780002D13165400CA8528080F
:1028E0009700C3FFE780402C2C0828009700C3FF07
:1028F000E780C02B41462C00138504019700C3FFDD
:10290000E78000FF19E50547050493840402E31FEF
:1029100074F91305301009A89440FD57E39BF6FEA7
:10292000198C23A089000145FA406A44DA444A49D7
:10293000BA492A4A9A4A0A4BF65B0D61828079713C
:1029400026D24AD0AE8432898145214622D44ECE49
:1029500006D6B6892A849700C3FFE780A0F885478A
:1029600093F61900639EF40CB7F701609387070094
:102970005CC004C05C403747D850130717AAF8D38F
:10298000B847370600A07D1606070583B8C7B847C5
:10299000B70540008606718FB8C7B847370600E80C
:1029A0007D164D8FB8C7B8474209718FB8C7B84771
:1029B000370600FA7D164D8FB8C7B847718FB8C774
:1029C000B847370680FE7D164D8FB8C7B847718F60
:1029D000B8C7B847370600204D8FB8C7F85F1367F0
:1029E0002700F8DFB85B759BD98EB4DBB847B70614
:1029F0001C00558FB8C7B847B78603004D8FB8C7BE
:102A0000B847558FB8C7B847B70620004D8FB8C72D
:102A1000B847558FB8C793860708F85E518FF8DE20
:102A2000F8473AC63246420641823366260132C62C
:102A30003247F8C7B8474D8FB8C723A207067DA80D
:102A400089476397F400B7070260938707000DB7C3
:102A5000378700601307070058C004C081FC374661
:102A6000D85093070708130616AA90D7904BB705BE
:102A70000090FD150606058290CB904B6D8E90CB95
:102A8000904BB70500F2FD156D8E90CB904BB705BE
:102A900040FEFD156D8E90CB904BB705C8FFFD1520
:102AA0006D8E90CB904B9395360032C422461376B0
:102AB00006F032C4224690CB904B1376F6EF90CBC3
:102AC00070471366860070C73043937676FFCD8ECD
:102AD00034C3944B056613060680D18E94CB944B79
:102AE0003706070093E6062094CB944BD18E94CB07
:102AF000944B3966D18E94CB2324070AB2502254CA
:102B000092540259F2494561828018415C4149EF73
:102B100009479D8A6380E5066360B7028DC503A7F8
:102B20000709B70500F2FD15E6066D8F558F23A83E
:102B3000E70823ACC70882800D47638AE50441118A
:102B400006C6EFF04FD703A70709B7050090FD159C
:102B5000F2066D8F558F23A8E7083797006013079B
:102B60000780585B41830D8B05073357E60023AA86
:102B7000E708828003A70709B70540FEFD15DA06BE
:102B80006D8F558F23A8E70823AEC708828003A75F
:102B90000709B705C8FFFD15CE066D8F558F23A811
:102BA000E70823A0C70A828009478D8A638BE50462
:102BB000636DB70085C9B847B70500E8FD15EE0697
:102BC0006D8F558FB8C7F0CB3DA00D47E399E5F663
:102BD000B847B70580FEFD15DE066D8F558FB8C767
:102BE000F0CF11A8B847B70500A0FD15F6066D8F08
:102BF000558FB8C7B0CBB847B7064000558FB8C798
:102C00008280B847B70500FAFD15E6066D8F558F2F
:102C1000B8C7B0CFCDB71441B747D8505841938704
:102C200017AA81E62324F70A82807CD38280184188
:102C30005C4101E723A4070A828023A20706828061
:102C400018415C4101EF93870708D853B70600800D
:102C5000558FD8D3984B558F98CB82800547B8D3E2
:102C6000B847B7060080558FB8C7828018415C41CD
:102C7000858919EB03A70709FD76FD16B205758F47
:102C80004D8F23A8E7088280B847F176FD16758F2F
:102C9000BA054D8FB8C7B847B7064000558FB8C7BB
:102CA0008280B7570C60930600101387072094C3E7
:102CB0009107E39EE7FE8280411106C69700C3FF9D
:102CC000E78080D9B2404101E9BF13F71600898A35
:102CD0002E969DC2B70700BE3385F500B70680006B
:102CE000637CD500FD173E966375D60015E7054554
:102CF000828015E701458280014511CFB70700C4E6
:102D0000BE953705800063FCA500FD173E96333560
:102D1000A60081475D8D828085470145E5BF8147DB
:102D2000EDBF01114EC6C16956C2FD19BE8AB36717
:102D3000D60006CE22CC26CA4AC852C4B3F7370101
:102D400099C3EFF04FB73A847D17B3E78600369703
:102D50005D8FB7070001B684E375F7FE32892E8ACE
:102D60008D462286CA85953769DD4E94418093173A
:102D7000040193D604013717031823A0FA003694F0
:102D8000054613070740C165639B8600F240624415
:102D9000D2444249B249224A924A056182809357FD
:102DA000090193F7F707E31ECAF8BA978A0794C395
:102DB0002E998506D1BF411106C69700C3FFE78053
:102DC000E0CEB757CD3F23A4A7729700C3FFE7809B
:102DD00020CEB7470C60D843B240D8C3D843759BC8
:102DE000D8C3D843799BD8C3D843D8C34101828084
:102DF0001703C3FF670083CBB757CD3F9387877215
:102E0000C8431703C3FF6700A3CA378700601C438A
:102E100093E707541CC3B757CD3F23A207728280A4
:102E200093070005630AF5009307000A6305F5049C
:102E3000411106C6EFF02FA837070C601C47F19B25
:102E40001CC737070C603C4FFD769386F63F93F71F
:102E500007C03CCF3C4FF58F93E707403CCFB757B7
:102E60004B4C378700609387B7C4232EF70A1703AC
:102E7000C3FF670063CA37070C601C47F19B93E7E9
:102E800017007DBFB7870060B853B706F2FFFD1685
:102E9000758FB7060600558FB8D3B853C976FD169F
:102EA000758F9966558FB8D3B853F9769386F63FE8
:102EB000758F8566938606C0558FB8D3B853C166A3
:102EC00013670720B8D3B853558FB8D3828011C188
:102ED00055BFB7870060B853C176FD161367070862
:102EE000B8D3B853758FB8D382803787006041114B
:102EF0003C5B22C406C62E840DCD93F7F7FB3CDB6A
:102F00005C4FF1769386F603F58F93E707145CCF59
:102F10001305200397F0C2FFE780806C37870060BD
:102F20003C5B05C493F7F7F7B24022443CDB410118
:102F3000828093E707043CDB5C4FF1769386F603CF
:102F4000F58F93E707505CCFD1BF93E70708E9BF40
:102F500085476302F50289476303F50431E9378742
:102F600000603C5B8A0789833CDB378700603C5B01
:102F700093F7F7EF31A8378700603C5BB706004056
:102F80001386F6FFF18FD58F3CDB3C5B93E7071090
:102F90003CDB1305C01217F3C2FF67006364378779
:102FA00000603C5BB70600808A078983D58F6DBFC0
:102FB000411106C6EFF02F90B7870060A85B8547E8
:102FC00079816307F50089476304F50011C10D4558
:102FD0008280411106C6CD37AA8705472165638FD8
:102FE000E70009476389E700014589EB37150200CF
:102FF0001305053421A04565130575B0B2404101A4
:10300000828001C985476303F502411106C6EFF0CE
:103010008F8AB7860060BC5A370700E07D17F98FAA
:10302000BCDA0D4517F3C2FF6700835B378700608A
:103030003C5BB7060020D58F3CDBE5B7B787006067
:10304000A85B758105898280B787006083A7870B9D
:103050001305800293960701C18213D70701639D70
:10306000E6001387F7FFF55663E8E600416579153A
:103070007D8D19E1130580028280411122C426C290
:1030800006C62A84AE84C93763658502AA870145CE
:103090001DC833D7870293561700BE96B3D6E602F3
:1030A0006313D402814694C0DCC098C4C0C40545F3
:1030B00019A893070005630DF4009307000A014562
:1030C0000D476308F400B2402244924441018280DB
:1030D000194785469307001EF9B74111B7070C60E1
:1030E00022C4A04F4AC006C6298026C20D880547C3
:1030F0002A89630BE40209476303E40639ECA44F11
:10310000A13793F4F43F8504B35795022320890037
:10311000B2402244232499002322A9002326F90047
:10312000924402494101828098470D8B11CF63156B
:1031300087028047098005881DE405449307000A3B
:10314000894413050014D9B79C478983858B95E37F
:10315000930700059144F5B79C47EFE0DFF5D147B1
:103160008544514565B79307000A8D441305001E39
:1031700071BF3E84994493070005CDBFB7870060B7
:1031800003A7870BC16785077D8F6314F70013655D
:10319000150093170501C1834205C98F3787006069
:1031A000232CF70A8280318193170501C1834205E0
:1031B000C98F37870060232EF70A8280411122C40D
:1031C00026C206C6AA842E849700C3FFE780C09457
:1031D000B7070C60B84F137707C0B8CF19E0EFE01E
:1031E0009FEDB84F7D141374F43F137707C0598CCB
:1031F000A0CFB84FFD769386F63F758FB8CFB7470F
:103200000F00938707243385F4022244B24092448E
:10321000410151BF0111B7070C6022CCA04F26CA53
:1032200006CE29804AC84EC652C456C25AC00D881E
:1032300005471C41AA84630DE40889466303D40052
:103240002DE0E9CB6383E70609476392E704514524
:103250009700C3FFE780408C37070C603C4FFD763A
:103260009386F63F93F707C03CCF3C4FF58F8566BA
:1032700093860680D58F3CCFB717B0109387070B86
:1032800037870060232EF70A85476305F406F2406E
:103290006244D2444249B249224A924A024B0561F1
:1032A0008280ADCB0D44E391E7FA378700601C4381
:1032B00093F7F7AB1CC3493B03AA440093070014E0
:1032C0006306FA069307001E6304FA0AEFE0BFDE06
:1032D00099CFE39B87F66244C844F240D244424906
:1032E000B249224A924A024B05616FF07FB30C4506
:1032F0004845E935B757CD3F83A70772C9FB6244FC
:10330000F240D2444249B249224A924A024B0561F4
:103310006FF0BFAF62448C44C844F240D24442498B
:10332000B249224A924A024B056149BD37070C60F7
:103330001C47ED9B1CC7B7E70060B8436D9BB8C343
:10334000B84313678700B8C3930700026304F512FC
:10335000914901499306900611468145130560067F
:103360009710C3FFE78080B88D4A1544014B99A0A0
:1033700037070C601C4793E747001CC7B7E700609E
:10338000B8436D9BB8C3B84313678700B8C39307AE
:103390000002630CF50C8D4A1544A14901499306BE
:1033A000B00611468145130560069710C3FFE780FC
:1033B000E0B34A8B93164400B366D90009468145B1
:1033C000130560069710C3FFE78040B2CE860D4616
:1033D0008145130560069710C3FFE78020B1DA87A7
:1033E0000147894615468145130560069710C3FFBE
:1033F000E78000B0DA8711479946154681451305E5
:1034000060069710C3FFE780A0AE93E60A0919464D
:103410008145130560069710C3FFE78020AD8947FB
:103420000147854625468145130560069710C3FF71
:10343000E78000AC89471147954619468145130539
:1034400060069710C3FFE780A0AA854719479D46ED
:1034500019468145130560069710C3FFE78040A910
:10346000B757CD3F23A24773BDB5814A1144E949FF
:10347000054935B799490549F1BDB787006083A76C
:10348000C70B37F7FF0F37450F00B207F98F37A784
:10349000070013070712BA971305052433F5A7028F
:1034A0003385A7408280FD576316F500411106C69B
:1034B000EFE07FC0B7870060F85BB706C0FFFD167E
:1034C000758FF8DBF85BB706807F5E05758DB706F4
:1034D0008080FD16758F598DE8DBF85BB7064000DC
:1034E000558FF8DB8280FD576316F500411106C643
:1034F000EFE07FBCB7870060B85B9D6632055D9BDF
:10350000B8DBB85B758DE576FD16758F598DA8DB38
:10351000B85B13678700B8DB828000000000007E84
:10352000FD01DAA85590EB6C2E9ECEF6CEA340910D
:10353000721C4334A72517DEF72DC9E298D698BE32
:10800000AA50010200900000005000006E7673003C
:108010000000000000000000000000000000000060
:10802000AA50010000E00000002000006F746164AD
:10803000617461000000000000000000000000000A
:10804000AA500010000001000000140061707030A0
:108050000000000000000000000000000000000020
:10806000AA5000110000150000001400617070316A
:108070000000000000000000000000000000000000
:10808000AA50018200002900000016007370696682
:108090006673000000000000000000000000000007
:1080A000AA50010300003F0000000100636F7265E9
:1080B00064756D700000000000000000000000000A
:1080C000EBEBFFFFFFFFFFFFFFFFFFFFFFFFFFFFE8
:1080D000972DAE2FF872A0142D60BAD124C0666B14
:1080E000FFFFFFFFFFFFFFFFFFFFFFFFFFFFFFFFA0
:1080F000FFFFFFFFFFFFFFFFFFFFFFFFFFFFFFFF90
:10810000FFFFFFFFFFFFFFFFFFFFFFFFFFFFFFFF7F
:10811000FFFFFFFFFFFFFFFFFFFFFFFFFFFFFFFF6F
:10E0000001000000FFFFFFFFFFFFFFFFFFFFFFFF1B
:10E01000FFFFFFFFFFFFFFFFFFFFFFFF9A98434750
:10E02000FFFFFFFFFFFFFFFFFFFFFFFFFFFFFFFF00
:10E03000FFFFFFFFFFFFFFFFFFFFFFFFFFFFFFFFF0
:10E04000FFFFFFFFFFFFFFFFFFFFFFFFFFFFFFFFE0
:10E05000FFFFFFFFFFFFFFFFFFFFFFFFFFFFFFFFD0
:10F0000000000000FFFFFFFFFFFFFFFFFFFFFFFF0C
:10F01000FFFFFFFFFFFFFFFFFFFFFFFFFFFFFFFF00
:10F02000FFFFFFFFFFFFFFFFFFFFFFFFFFFFFFFFF0
:10F03000FFFFFFFFFFFFFFFFFFFFFFFFFFFFFFFFE0
:10F04000FFFFFFFFFFFFFFFFFFFFFFFFFFFFFFFFD0
:020000040001F9
:10000000E906022F86193840EE00000005000000C6
:1000100000FFFF000000000120000F3CD809040091
:100020003254CDAB000000000000000000000000D2
:100030003533366264636200000000000000000097
:1000400000000000000000000000000000000000B0
:1000500061726475696E6F2D6C69622D6275696C71
:100060006465720000000000000000000000000055
:1000700031383A34313A35360000000000000000D3
:100080004D617920313320323032340000000000DD
:1000900076352E312E342D35312D6734343261379B
:1000A00039383038332D64697274790000000000EB
:1000B0006ED2B3969FD5A3A5F0B7F681913A252FBE
:1000C00026BFE4B86564D36CE341B57C17FD0BA390
:1000D0000000000000000000000000000000000020
:1000E0000000000000000000000000000000000010
:1000F0000000000000000000000000000000000000
:1001000000000000000000000000000000000000EF
:1001100000000000000000000000000000000000DF
:10012000427574746F6E205072657373656400005D
:10013000456E746572696E672053687574646F7775
:100140006E000000456E746572696E672046756CBE
:100150006C204F6666000000427574746F6E20520A
:10016000656C656173656400496E707574206F76A7
:10017000657220766F6C74616765206661756C745A
:10018000206F636375727265640000005468657265
:100190006D616C2073687574646F776E206F636334
:1001A0007572726564000000436861726765207350
:1001B00061666574792074696D657220657870690F
:1001C000726564004572726F7220656E61626C695F
:1001D0006E6720436861726765206D6F646500001B
:1001E0004572726F723A2062617474657279206F21
:1001F00076657220766F6C74616765206661756CD8
:10020000740000004C6F77657220746872657368C3
:100210006F6C6420426174746572792074656D70CE
:1002200065726174757265206661756C740000009A
:10023000486967686572207468726573686F6C647A
:1002400020426174746572792074656D70657261A5
:1002500074757265206661756C7400005365747402
:10026000696E6720757020436861726765722069E6
:100270006E746572666163652E2E2E004661696C30
:10028000656420746F20696E697469616C697A6550
:1002900020504D49432100004572726F7220696EF3
:1002A0002073657420696E70757420637572726551
:1002B0006E74206C696D6974000000004572726F85
:1002C0007220696E2073657420696E707574207673
:1002D0006F6C74616765206C696D69740000000063
:1002E0004572726F7220696E20736574206D696E3D
:1002F000696D756D2073797374656D20766F6C61AF
:10030000676500004572726F7220696E20736574B4
:100310002063686172676520766F6C6167650000B5
:100320004572726F7220696E2073657420746865FF
:10033000726D616C20726567756C6174696F6E00B7
:100340004572726F7220696E2073657420636861F4
:100350007267652063757272656E74004572726FA4
:10036000722064697361626C696E672043686172B0
:100370006765206D6F646500436861726765722010
:100380005365747570204661696C656400000000F7
:10039000000000401F858B40333353406666864023
:1003A0000000803F4661696C656420746F20637251
:1003B00065617465206469726563746F72793A204F
:1003C000257300004661696C656420746F20726556
:1003D0006D6F7665206469726563746F72793A2017
:1003E00025730000465348656C706572000000007C
:1003F000504420566F6C746167653A202566000092
:1004000050442043757272656E743A202566000070
:1004100053657474696E672075702055534220507F
:10042000442E2E2E000000000000C44200000000F8
:10043000FCA9F1D24D62403F2D431CEBE2361A3F3E
:10044000000080BF00007A4466667E4048E13A4082
:10045000CDCC4C3F5A646B400000A03FC74B5F407F
:100460009A9959409A99D93F3D0A5740CDCC4C4072
:100470009A99993ECDCC4C3D3333733F0000000038
:100480006666666666A64B400000000000002440D9
:100490002F63616C6962726174696F6E7300000032
:1004A0002F746F67676C6573000000007665637476
:1004B0006F723A3A5F4D5F64656661756C745F6137
:1004C0007070656E64000000466F756E6420736521
:1004D0006E736F722063616C6962726174696F6EB2
:1004E00020666F7220257320617420696E646578C0
:1004F000202564002F63616C6962726174696F6E9C
:10050000732F257A75000000536176696E6720733A
:10051000656E736F7220636F6E66696720646174C5
:100520006120666F72202564000000002F746F67E1
:10053000676C65732F257A7500000000536176693A
:100540006E672073656E736F7220746F67676C657A
:1005500020737461746520666F722025640000004A
:100560002F636F6E6669672E62696E0053617665F0
:100570006420636F6E66696775726174696F6E007F
:10058000526573657420636F6E6669677572617416
:10059000696F6E0073706966667300002F6C697412
:1005A000746C656673000000436F756C64206E6F39
:1005B00074206D6F756E74204C6974746C6546534D
:1005C0002C20666F726D617474696E6700000000A4
:1005D000436F756C64206E6F7420666F726D61740A
:1005E000204C6974746C6546532C2061626F727480
:1005F000696E6700436F756C64206E6F74206D6F59
:10060000756E74204C6974746C6546532C2061625D
:100610006F7274696E670000466F756E6420636F59
:100620006E66696775726174696F6E2066696C6564
:1006300000000000436F6E66696775726174696FD0
:100640006E206973206F757464617465643A2076F6
:100650002564203C2076256400000000466F756EFE
:10066000642075702D746F2D6461746520636F6EE6
:1006700066696775726174696F6E20762564000023
:100680004E6F20636F6E66696775726174696F6E15
:100690002066696C6520666F756E642C20637265D8
:1006A0006174696E67206E6577206F6E650000006B
:1006B0004C6F6164656420636F6E66696775726113
:1006C00074696F6E00000000466F756E642073657C
:1006D0006E736F7220746F67676C652073746174DA
:1006E0006520617420696E646578202564000000CF
:1006F0002F63616C6962726174696F6E732F257309
:1007000000000000424D4931363000004D5055394F
:10071000323530004D5055363035300049434D327A
:100720003039343800000000536F667446757369C1
:100730006F6E2028636F6D6D6F6E2900424E4F30D3
:1007400058580000536F6674467573696F6E2028A1
:1007500072756E74696D652063616C696272617433
:10076000696F6E29000000004445425547000000B3
:100770005452414345000000494E464F00000000DE
:100780005741524E00000000464154414C000000C9
:100790005B252D35735D205B25735D2025730A0075
:1007A000536C696D6556522076302E362E322D4FA1
:1007B00072696F6E2D31207374617274696E672077
:1007C00075702E2E2E0000004F72696F6E205472CD
:1007D00061636B6572000000536F6D617469632023
:1007E0005652000056656E646F723A2025732C20B5
:1007F00070726F647563743A202573256E00000073
:100800006669726D776172652E62696E0000000024
:1008100068747470733A2F2F6769746875622E63F9
:100820006F6D2F536F6D6174696356522F536F6DE7
:100830006174696356522D547261636B65722D4504
:1008400053502F72656C65617365732F6C617465AD
:10085000737400002C206669726D77617265207573
:1008600070646174652075726C3A2025732C206E5B
:10087000616D653A2025730043616E277420636CB7
:1008800065617220493243206275732C2065727253
:100890006F72202564000000536C696D655652002C
:1008A00053656E736F724D616E6167657200000013
:1008B0004C45444D616E6167657200004275747409
:1008C0006F6E4D6F6E69746F7200000053746174C7
:1008D00075734D616E61676572000000436F6E66EF
:1008E000696775726174696F6E000000554450430A
:1008F0006F6E6E656374696F6E00000055534250F1
:10090000444D6F6E69746F7200000000436861723D
:100910006765724D6F6E69746F7200004261747426
:100920006572794D6F6E69746F720000536C696DFA
:100930006556522D4F5441005544502062656769F9
:100940006E5061636B65742829206661696C65640B
:100950000000000073697A65203C3D203235350087
:10096000626F6F6C20536C696D6556523A3A4E65F2
:1009700074776F726B3A3A436F6E6E656374696F2A
:100980006E3A3A73656E6453686F72745374726929
:100990006E6728636F6E737420636861722A290022
:1009A0002F7372632F6E6574776F726B2F636F6E28
:1009B0006E656374696F6E2E63707000302E362E14
:1009C000322D4F72696F6E2D31000000486579201D
:1009D0004F5652203D4420350000000052656365AB
:1009E0006976656420696E76616C69642068616E01
:1009F000647368616B65207061636B6574000000EF
:100A000048616E647368616B6520737563636573B9
:100A10007366756C2C20736572766572206973201D
:100A200025733A2564000000536561726368696E3E
:100A30006720666F722074686520736572766572D0
:100A4000206F6E20746865206C6F63616C206E652A
:100A500074776F726B2E2E2E00000000436F6E6E47
:100A6000656374696F6E20746F207365727665724A
:100A70002074696D6564206F7574000048616E6450
:100A80007368616B65207265636569766564206172
:100A90006761696E2C2069676E6F72696E6700000E
:100AA00057726F6E672073656E736F7220696E6622
:100AB0006F207061636B657400000000496E7661A1
:100AC0006C6964206665617475726520666C616727
:100AD00073207061636B65743A20746F6F20736864
:100AE0006F72740053657276657220737570706FE3
:100AF000727473207061636B65742062756E646CD0
:100B0000696E6700496E76616C69642073656E7307
:100B10006F7220636F6E66696720666C6167207014
:100B200061636B65743A20746F6F2073686F7274C1
:100B300000000000496E76616C69642073656E7315
:100B40006F7220636F6E66696720666C61672070E4
:100B500061636B65743A20696E76616C69642073B9
:100B6000656E736F7220696400000000060000006B
:100B700053657474696E6720757020576946690003
:100B80004F72696F6E20547261636B657220000052
:100B90004D6178205769466920545820706F7765F9
:100BA000722073657420746F2025312E31662064A5
:100BB000426D00004661696C656420746F20736546
:100BC00074206D6178205769466920545820706FF1
:100BD0007765722E20526561736F6E3A20576946B1
:100BE00069206E6F7420696E697469616C697A65D9
:100BF000642E00004661696C656420746F20736523
:100C000074206D6178205769466920545820706FB0
:100C10007765722E20526561736F6E3A2057694670
:100C200069206E6F7420737461727465642E0000A5
:100C30004661696C656420746F20736574206D6112
:100C400078205769466920545820706F7765722E56
:100C500020526561736F6E3A20496E76616C6964EB
:100C600020417267756D656E742E00004661696C77
:100C7000656420746F20736574206D6178205769F6
:100C8000466920545820706F7765722E2052656136
:100C9000736F6E3A20556E6B6E6F776E2E20657295
:100CA000726F7220636F64653A20253034780000DB
:100CB0004C6F616465642063726564656E7469611C
:100CC0006C7320666F722053534944202725732785
:100CD00020616E642070617373206C656E67746848
:100CE000202564005374617475733A2025640000F4
:100CF000436F6E6E656374656420737563636573BB
:100D00007366756C6C7920746F20535349442027A7
:100D10002573272C20495020616464726573732009
:100D200025730000436F6E6E656374696F6E207487
:100D30006F2057694669206C6F73742C207265634D
:100D40006F6E6E656374696E672E2E2E0000000054
:100D500043616E277420636F6E6E656374206672E4
:100D60006F6D20616E792063726564656E74696170
:100D70006C732C207374617475733A2025642E0093
:100D80005769466948616E646C6572000000803E78
:100D9000536D617274436F6E66696720737461721C
:100DA000746564005769466950726F766973696F3C
:100DB0006E696E670000000062617369635F73743F
:100DC00072696E673A3A5F4D5F6372656174650080
:100DD00062617369635F737472696E673A3A5F4DFB
:100DE0005F7265706C6163650000000050696E2879
:100DF0000000000062617369635F737472696E67FB
:100E00003A3A617070656E640000000000000000F6
:100E100000000000A4370042A8370042B03700426B
:100E2000B8370042E63B00423030303130323033A8
:100E30003034303530363037303830393130313188
:100E4000313231333134313531363137313831396E
:100E50003230323132323233323432353236323766
:100E6000323832393330333133323333333433354C
:100E70003336333733383339343034313432343332
:100E80003434343534363437343834393530353118
:100E900035323533353435353536353735383539FE
:100EA00036303631363236333634363536363637F6
:100EB00036383639373037313732373337343735DC
:100EC00037363737373837393830383138323833C2
:100ED00038343835383638373838383939303931A8
:100EE000393239333934393539363937393839398E
:100EF00000000000456D70747900000000000000E3
:100F000000000000023E0042063E00420A3E00424F
:100F10000C3E00420E3E00420E3E0042103E004299
:100F2000143E0042183E00424E6F6E650000000005
:100F30000000000000000000483E00424C3E00421D
:100F40004E3E0042494D55206F66207479706520F1
:100F50002573206661696C656420746F20696E6911
:100F60007469616C697A650000000000000000008F
:100F70001E3F00422C3F0042A43E0042903E0042F1
:100F80009A3E00429C3E0042CAEF004254F00042AA
:100F90009E3E0042A03E0042ACF20042ACF2004253
:100FA000ACF20042ACF20042EEEF0042923E004250
:100FB000963E0042626164206F7074696F6E616C6E
:100FC00020616363657373004352542072756E6EC3
:100FD000696E672E20446F206E6F74206D6F76658A
:100FE00020747261636B65722100000043525420CB
:100FF0006661696C656420776974682073746174D4
:10100000757320307825782E20526563616C696293
:101010007261746520616761696E20746F20656E0E
:1010200061626C65204352542E000000526561736A
:101030006F6E3A20747261636B6572207761732002
:101040006D6F76656420647572696E6720435254D3
:10105000210000004352542066696E69736865641C
:10106000207375636365737366756C6C792C20727D
:101070006573756C7420307825782C20307825784D
:101080002C203078257800004175782072656164E5
:101090002066726F6D2061646472657373203078AE
:1010A000253032782072657475726E6564207374B1
:1010B0006174757320307825303278004649464F88
:1010C000204F56455252554E212054686973206F67
:1010D00063637572696E6720647572696E67206EEE
:1010E0006F726D616C207573616765206973206133
:1010F0006E2069737375652E000000002575000071
:10110000456D70747953656E736F72004572726FBE
:101110006E656F757353656E736F72004275696C9F
:1011200064696E6720494D5520776974683A206973
:10113000643D25642C0A090909090909616464727E
:101140006573733D25732C20726F746174696F6EC3
:101150003D25662C0A090909090909696E74657239
:10116000666163653D25732C20696E743D25732C83
:10117000206578747261506172616D3D25642C2028
:101180006F7074696F6E616C3D2564004D616E64B3
:1011900061746F72792073656E736F72202564209D
:1011A0006E6F7420666F756E642061742061646474
:1011B00072657373202573004F7074696F6E616C74
:1011C0002073656E736F72202564206E6F742066C5
:1011D0006F756E642061742061646472657373203E
:1011E0002573000053656E736F7220256420666F4F
:1011F000756E642061742061646472657373202568
:1012000073000000424E4F30383553656E736F7275
:10121000000000004D61674472697665720000004D
:10122000424D4932373000004C534D36445356003E
:101230004C534D3644534F004C534D36445352009B
:1012400049434D2D3435363836000000556E616205
:101250006C6520746F206372656174652073656EC0
:10126000736F7220776974682074797065202573B4
:101270002028256429000000493243283078253091
:1012800032782900766563746F723A3A5F4D5F7207
:1012900065616C6C6F635F696E73657274000000EA
:1012A000576972652800000043616E2774206669E3
:1012B0006E642073656E736F72207479706520663A
:1012C0006F722073656E736F7220256400000000DA
:1012D00053656E736F72202564206175746F6D6144
:1012E000746963616C6C79206465746563746564AA
:1012F00020776974682025730000000053656E73C1
:101300006F7220256420636F6E666967757265640D
:101310000000000043616C6962726174656420744E
:10132000696D6573746570733A20416363656C2001
:1013300025662C204779726F2025662C2054656D18
:1013400070657261747572652025660053656E73F1
:101350006F722074696D657374657073206E6F743D
:101360002063616C696272617465640043616C69D9
:10137000627261746564206779726F20626961735B
:10138000206174202566433A2025662025662025A5
:10139000660000004779726F2062696173206E6F8A
:1013A000742063616C69627261746564000000009E
:1013B00043616C6962726174656420616363656C2A
:1013C00020626961733A2025662025662025660023
:1013D0005061727469616C6C792063616C696272CE
:1013E0006174656420616363656C20626961733A4E
:1013F0002025662025662025660000004163636580
:101400006C2062696173206E6F742063616C696225
:10141000726174656400000053656E736F722074AE
:10142000696D656F7574204932432041646472654B
:101430007373203078253032782064656C6179745C
:10144000696D653A202564206D7300004D6F7469E5
:101450006F6E6C6573732063616C6962726174692D
:101460006F6E20646F6E65004D6F74696F6E6C6592
:1014700073732063616C6962726174696F6E206E50
:101480006F7420646F6E650053656E736F72206EAB
:101490006F742064657465637465642C206578706E
:1014A0006563746564207265672030782530327812
:1014B000203D203078253032782062757420676FA7
:1014C0007420307825303278000000004E6F2063A1
:1014D000616C6962726174696F6E2064617461200D
:1014E000666F756E6420666F722073656E736F72BF
:1014F0002025642C2069676E6F72696E672E2E2E10
:101500000000000043616C6962726174696F6E2053
:10151000697320616476697365640000496E636F66
:101520006D70617469626C652063616C696272617F
:1015300074696F6E206461746120666F756E6420DB
:10154000666F722073656E736F722025642C20693C
:10155000676E6F72696E672E2E2E0000506C65618B
:10156000736520726563616C696272617465000005
:1015700053656E736F72206661696C656420746F69
:1015800020696E697469616C697A652100000000E8
:10159000537439657863657074696F6E000000007C
:1015A000A49C113C90150F3C537431396261645F07
:1015B0006F7074696F6E616C5F61636365737300F4
:1015C000389D113CA8150F3CA0150F3C00000000F1
:1015D00000000000C2490042D0490042BE3F004224
:1015E0000000000000000000D8470042A847004269
:1015F000CE4700427C4700429A4700427247004271
:10160000C83F00424A470042668C0042000000008A
:1016100000000000A66C0042B46C0042CE3F0042C5
:10162000903E0042D03F0042D23F0042CAEF00420B
:1016300054F00042D43F0042D63F0042ACF2004298
:10164000ACF20042ACF20042ACF20042EEEF0042DB
:10165000923E0042963E0042000000000000000062
:10166000DA3F00423E4700423E8E0042000000004A
:1016700000000000D06C0042DE6C00423EED0042F3
:10168000FC4700429AE9004294EC0042CAEF004253
:1016900054F00042BEE80042ECE80042ACF20042E6
:1016A000ACF20042ACF20042ACF20042EEEF00427B
:1016B000C0E80042963E004200000000000000002A
:1016C000F23F0042F8460042BA9D00422CD600424A
:1016D000CE4600424A46004212D7004234D700426A
:1016E00056D700420000000000000000F43F004216
:1016F000104700428E9D004200600042C2460042F8
:10170000A2420042A6420042A8420042AA4200422F
:101710000000000000000000F63F0042E8460042E2
:10172000D29C00422ED30042B6460042A242004262
:10173000A64200420ED5004262D5004200000000E1
:1017400000000000F83F0042E04600428C9C00424E
:1017500090D00042AA460042A242004274D1004208
:10176000A8420042AA42004200000000000000001F
:10177000FA3F0042DA460042049C004244460042DE
:1017800048460042A2420042A6420042A84200420D
:10179000AA42004200000000000000002245004272
:1017A00024450042264500426CC800429CCB0042C2
:1017B00010CD004248450042BA450042C0450042B3
:1017C00032460042384600423E4600420E4A00423F
:1017D000FC490042EA4900420C400042000000007F
:1017E00000000000087400423674004258D80042DD
:1017F000903E0042FCCD004274490042CAEF0042D4
:1018000054F000421045004212450042ACF2004242
:10181000ACF20042ACF20042ACF20042344800426A
:1018200018450042963E0042000000000000000003
:10183000FC3F004208470042609C00420C450042C9
:101840009E460042A2420042A6420042A8420042F6
:10185000AA4200420000000000000000F0430042E5
:10186000F2430042F443004210C000420CC3004265
:101870007CC400421044004282440042884400423A
:10188000FA4400420045004206450042444A0042F4
:10189000324A0042204A004212400042000000004A
:1018A00000000000BE730042EC730042ECD900421D
:1018B000903E004268C5004226490042CAEF0042FD
:1018C00054F00042DE430042E0430042ACF20042EA
:1018D000ACF20042ACF20042ACF200422C480042B2
:1018E000E6430042963E0042000000000000000077
:1018F000FE3F004200470042349C0042DA4300426F
:1019000092460042A2420042A6420042A842004241
:10191000AA4200420000000000000000BE42004257
:10192000C0420042C2420042B4B70042B0BA0042D4
:1019300020BC0042DE420042504300425643004277
:10194000C8430042CE430042D44300427A4A004298
:10195000684A0042564A0042184000420000000017
:101960000000000074730042A273004264DB004276
:10197000903E00420CBD0042D8480042CAEF0042EF
:1019800054F00042AC420042AE420042ACF200428F
:10199000ACF20042ACF20042ACF2004224480042F9
:1019A000B4420042963E00420000000000000000E9
:1019B00000400042F0460042089C00429E42004225
:1019C00086460042A2420042A6420042A84200428D
:1019D000AA420042000000000000000082410042D4
:1019E0008441004286410042F8AE0042F4B1004218
:1019F000C4B30042A2410042144200421A420042D3
:101A00008C4200429242004298420042B04A004258
:101A10009E4A00428C4A00421E40004200000000E4
:101A2000000000002A73004258730042DCDC0042D0
:101A3000903E0042B0B400428A480042CAEF0042E1
:101A400054F000427041004272410042ACF2004248
:101A5000ACF20042ACF20042ACF200421C48004240
:101A600078410042963E0042000000000000000065
:101A70000240004236470042005A0042BCAC0042DD
:101A80007A4600426C410042A2AD0042C4AD004221
:101A9000E6AD0042000000000000000004400042EB
:101AA0002E4700425A5A0042684100426E460042A8
:101AB0005E41004262410042644100426641004290
:101AC00000000000000000000640004226470042DF
:101AD000885A0042C4A90042624600425E41004268
:101AE00062410042A4AB0042F2AB004200000000A1
:101AF00000000000084000421E470042465B0042D2
:101B000028A70042564600425E4100420CA800420F
:101B100064410042664100420000000000000000F5
:101B20000A400042184700428E5B00425841004282
:101B30005C4100425E410042624100426441004219
:101B40006641004200000000000000003C400042EE
:101B50003E40004240400042029F004208A2004234
:101B6000E0A300425C400042CE400042D44000422C
:101B7000464100424C41004252410042E64A004286
:101B8000D44A0042C24A0042244000420000000001
:101B900000000000D87200420E73004254DE004282
:101BA000903E00421CA500423C480042CAEF004261
:101BB00054F000422A4000422C400042ACF2004265
:101BC000ACF20042ACF20042ACF2004214480042D7
:101BD00032400042963E0042100F0E0D0B000000F6
:101BE0000000404000001041010101000000803F62
:101BF0000000C84200000040CDCCCC3D17B7D13822
:101C00008FC2F53C0000C03F0000003F0000803F55
:101C1000A69B443ECDCC4C3D0000A041CDCCCC3D5C
:101C2000000020410000A0410000A0400000A041B1
:101C30000000003F000070420000004000004040F3
:101C400000001041010101000000803F0000C84277
:101C500000000040CDCCCC3D17B7D1388FC2F53C49
:101C60000000C03F0000003F0000803FA69B443EB4
:101C7000CDCC4C3D0000A041CDCCCC3D000020415E
:101C80000000A0410000A0400000A0410000003F73
:101C90000000704200000040000040400000104181
:101CA000010101000000803F0000C8420000004028
:101CB000CDCCCC3D17B7D1388FC2F53C0000C03F2A
:101CC0000000003F0000803FA69B443ECDCC4C3D31
:101CD0000000A041CDCCCC3D000020410000A0413F
:101CE0000000A0400000A0410000003F0000704242
:101CF00000000040D97CE5400000104101010100D6
:101D0000310BAD3E251EB0430000A040A33F7C3FF9
:101D10007766023C67B9EC3CFDC19440A438F33FC0
:101D2000E1B727403E200940CDCC4C3D0000A0410A
:101D3000CDCCCC3D000020410000A0410000A040DF
:101D40000000A0410000003F000070420000004081
:101D50000000404000001041010101000000003F70
:101D60000000C8420000803FCDCCCC3D17B7D13831
:101D70008FC2F53C0000C03F0000003F0000003F64
:101D800039B4483ECDCC4C3D0000A041CDCCCC3D3B
:101D9000000020410000A0410000A0400000A04140
:101DA0000000003F0000704200000040C82E002EDE
:101DB000802E3DB1C82E002E802E9103802EBCB007
:101DC000802EA303C82E002E802E00B05030212E6E
:101DD00059F51030212E6AF5802E3B0300000000DB
:101DE000081901002200750000100010D100B34353
:101DF000802E00C1802E00C1802E00C1802E00C127
:101E0000802E00C1802E00C1802E00C1802E00C116
:101E1000802E00C1802E00C1802E00C1802E00C106
:101E2000802E00C1802E00C1802E00C1802E00C1F6
:101E3000802E00C1802E00C1802E00C1802E00C1E6
:101E4000802E00C1802E00C1802E00C1802E00C1D6
:101E5000802E00C1802E00C1802E00C1802E00C1C6
:101E6000802E00C1802E00C1802E00C1802E00C1B6
:101E7000802E00C1802E00C1802E00C1802E00C1A6
:101E8000802E00C1802E00C1802E00C1802E00C196
:101E9000802E00C1802E00C1E05F00000000010024
:101EA00000000000000000000000920000000000A0
:101EB0000000000000000000000000000819000001
:101EC000880000000000000005E0AA3805E090301E
:101ED000FA0096004B091100110002002D01D47B7D
:101EE0003B01DB7A04003F7BCD6CC3048509C3044E
:101EF000ECE60C460100270019009600A000010046
:101F00000C00F03C00010100030001000E00000085
:101F100032000500EE060400C80000000400A80519
:101F2000EE060004BC02B3008507000000000000BC
:101F30000000000000000000000000000000B400ED
:101F40000100B9000100980000000000000000003E
:101F500001008000040000000000000000000000FC
:101F60000000000000000000000000000000000071
:101F70000000000000000000000000000000000061
:101F80000000000000000000000000000000000051
:101F90000000000000000000000000000000000041
:101FA000000000000000802E00C1FD2DDE00EB00CF
:101FB000DA00000CFF0F0004C0005BF5C9011EF23F
:101FC00080003FFF19F458F566F564F5C0F1F000A4
:101FD000E000CD01D301DB01FF7FFF01E40074F7D6
:101FE000F300FA00FF3FCA036C3856FE44FDBC0202
:101FF000F90600FC1202AE0158FA9AFD7705BB0201
:10200000960195017F0182018901870188018A017A
:102010008C018F018D0192019101DD009F017E01F4
:10202000DB00B601706926D39C071F059D000008E0
:10203000BC0537FAA201AA01A101A801A001A805C7
:10204000B401B401CE00D000FC00C501FFFBB1001B
:1020500000380030FDF5FCF5CD01A0005FFF004029
:10206000FF0000806D0FEB007FFFC2F568F7B3F152
:10207000670F5B0F610F800F58F75BF7830F8600C8
:10208000720F850FC6F17F0F6CF700E000FFD1F5EE
:10209000870F8A0FFF03F03F8B008E009000B9007E
:1020A0002DF5CAF5CB0120F2000000000000000071
:1020B0000000000000000000000000000000000020
:1020C0000000000000000000000000000000000010
:1020D0000000000000000000000000000000000000
:1020E00000000000000000000000000000000000F0
:1020F00000000000000000000000000000000000E0
:1021000000000000000000000000000000000000CF
:1021100000000000000000000000000000000000BF
:1021200000000000000000000000000000000000AF
:10213000000000000000000000000000000000009F
:10214000000000000000000000000000000000008F
:10215000000000000000000000000000000000007F
:10216000000000000000000000000000000000006F
:10217000000000000000000000000000000000005F
:10218000000000003050982ED70E5032982EFA03DF
:102190000030F07F002E002ED02E002E018008A2ED
:1021A000FB2F982EBA03212E1900012EEE0000B24B
:1021B000072F012E190000B2032F01500352982E51
:1021C00007CC012EDD0000B2272F052E8A00055214
:1021D000982EC7C1032EE90040B2F07F082F012ED0
:1021E000190000B2042F0030212EE900982EB4B15E
:1021F000012E180000B2102F0550982E4DC3055027
:10220000982E5AC7982EF9B4982E54B2982E67B6C5
:10221000982E17B21030212E7700012EEF0000B259
:10222000042F982E7AB70030212EEF00012ED40013
:1022300004AE0B2F012EDD0000B2072F0552982EA1
:102240008E0E00B2022F1030212E7D00012E7D0057
:102250000090902EF102012ED70000B2042F982E8C
:102260002F0E0030212E7B00012E7B0000B2122F9A
:10227000012ED4000090022F982E1F0E092D982EAB
:10228000810D012ED4000490022F5032982EFA03B3
:102290000030212E7B00012E7C0000B2902E09031D
:1022A000012E7C000131010800B2042F982E47CB8B
:1022B0001030212E77008130012E7C00010800B201
:1022C000612F032E8900012ED40098BC98B805B266
:1022D0000F58232F079009540030372F1541044120
:1022E000DCBE44BEDCBA2C0161000F564A0F0C2F35
:1022F000D14294B8C1421130052E6AF72CBD2FB9D6
:1023000080B20822982EC3B7212D6130232ED4002D
:10231000982EC3B70030212E5AF5182DE17F50308A
:10232000982EFA030F520750504270300D5442421B
:102330007E82E26F80B24242052F212ED4001030FF
:10234000982EC3B7032D6030212ED400012ED40067
:102350000690182F012E76000B540752E07F982E1E
:102360007AC1E16F081A4030082F212ED4002030A6
:10237000982EAFB75032982EFA03052D982E380EAE
:102380000030212ED4000030212E7C00182D012E8B
:10239000D40003AA012F982E450E012ED4003F80B1
:1023A00003A2012F002E022D982E5B0E3030982EA6
:1023B000CEB70030212E7D005032982EFA03012E28
