:020000040000FA
:10000000E903022F10C73C40EE000000050000008D
:1000100000FFFF00000000011058CD3F3804000031
:10002000FFFFFFFF417373657274206661696C6541
:100030006420696E2025732C2025733A25642028BE
:100040002573290D0A00000061626F72742829204F
:100050007761732063616C6C656420617420504328
:10006000203078253038780D0A000000626F6F74F8
:100070006C6F616465725F666C6173685F657865FB
:10008000637574655F636F6D6D616E645F636F6DE3
:100090006D6F6E00626F6F746C6F616465725F6626
:1000A0006C6173685F726561645F736664700000A1
:1000B0006D6F73695F6C656E203C3D2033320000CC
:1000C0002F4944462F636F6D706F6E656E74732F8A
:1000D000626F6F746C6F616465725F737570706F5F
:1000E00072742F7372632F626F6F746C6F616465CB
:1000F000725F666C6173682E630000006D69736FD8
:100100005F6C656E203C3D20333200006D69736F7B
:100110005F627974655F6E756D203C3D2034000030
:10012000626F6F746C6F616465725F7574696C5F28
:10013000726567696F6E735F6F7665726C61700070
:100140007665726966795F6C6F61645F6164647221
:100150006573736573000000656E64313E7374618E
:10016000727431002F4944462F636F6D706F6E6556
:100170006E74732F626F6F746C6F616465725F73FE
:100180007570706F72742F696E636C7564652F6221
:100190006F6F746C6F616465725F7574696C2E68E3
:1001A00000000000656E64323E7374617274320048
:1001B00043616C63756C6174656420686173680089
:1001C0004578706563746564206861736800000039
:1001D0006C6F61645F656E64203E206C6F61645F6C
:1001E00061646472000000002F4944462F636F6D04
:1001F000706F6E656E74732F626F6F746C6F616475
:1002000065725F737570706F72742F7372632F6590
:1002100073705F696D6167655F666F726D61742E83
:1002200063000000626F6F746C6F616465725F736E
:1002300068613235365F646174610000626F6F74AB
:100240006C6F616465725F7368613235365F6669D1
:100250006E6973680000000068616E646C6520213F
:100260003D204E554C4C00002F4944462F636F6D86
:10027000706F6E656E74732F626F6F746C6F6164F4
:1002800065725F737570706F72742F7372632F6510
:100290007370333263332F626F6F746C6F61646598
:1002A000725F7368612E6300646174615F6C656E78
:1002B00020252034203D3D2030000000626F6F7407
:1002C0006C6F616465725F696E697400265F62734A
:1002D000735F7374617274203C3D20265F62737398
:1002E0005F656E64000000002F4944462F636F6D08
:1002F000706F6E656E74732F626F6F746C6F616474
:1003000065725F737570706F72742F7372632F658F
:100310007370333263332F626F6F746C6F61646517
:10032000725F657370333263332E6300265F6461DE
:1003300074615F7374617274203C3D20265F646158
:1003400074615F656E640000626F6F746C6F6164EE
:1003500065725F66696C6C5F72616E646F6D0000E0
:1003600062756666657220213D204E554C4C00003A
:100370002F4944462F636F6D706F6E656E74732FD7
:10038000626F6F746C6F616465725F737570706FAC
:1003900072742F7372632F626F6F746C6F61646518
:1003A000725F72616E646F6D2E6300001C5CCD3FE6
:1003B000C2002000FF32CA3C407ACA3C4006245C9E
:1003C000CD3F9D004000CF32CA3C407ACA3C400637
:1003D0002C5CCD3FEF004000FF4CCA3C4094CA3C2F
:1003E0004009345CCD3FC8006000FF4CCA3C4094DB
:1003F000CA3C4009385CCD3F201738FFFFA0CA3CFB
:1004000040E8CA3C4006445CCD3FCD006000FF4C54
:10041000CA3C4094CA3C400900000000FFFFFFFFB7
:10042000FF3ECA3C4086CA3C400100004D5849434B
:1004300000000000495353490000000057696E4214
:100440006F6E640047440000584D323551553634C4
:10045000410000005448000010C73C401C09000047
:10046000317106DF9307000089C797000000E7009D
:100470000000992819C1EF30E0149307000089C7E4
:1004800097000000E7000000EF3060101306000A3C
:10049000814508089740C3FFE78000C10808EF20A6
:1004A000307071D90808EF20D07B9307D0F92AC6A5
:1004B000E303F5FC01452920B2450808EF3060123E
:1004C0001743C3FF6700838A011106CE22CC26CAD8
:1004D0004AC84EC6EF30B06A894763E8A70285472D
:1004E0001147914601468145130510069750C3FFF9
:1004F000E780401CB14701478D46054681451305FD
:10050000A0069750C3FFE780E01AEF3050671375DD
:10051000F50F854763FDA7008947630FF50605457D
:10052000EF3000270545EF302029054501A8054596
:10053000EF3000260145EF3020280145EF30602ADA
:1005400037371D8FB78700601307A71223A8E70A64
:1005500003A7C70AB7060080558F23A6E70A23A87A
:10056000070A392C3757CD3FB767CD3F13070771BF
:100570009387078163F7E702B766CD3F3766CD3FC4
:100580009386C6AB1306C6AA930560133765CD3FA5
:10059000130575B0EF30401B0545EF30601F054572
:1005A00059BF3767CD3FB767CD3F130707819387A3
:1005B000478163FDE700B766CD3F3766CD3F938641
:1005C000C6B11306C6AA93057013C9B7352997405B
:1005D000C3FFE78060CA9740C3FFE78020C597400C
:1005E000C3FFE780E0CCB7470C60D843799BD8C302
:1005F000D843759BD8C3E528312B212BC52EEF207E
:100600006023AA8479E11521AA8461E18921AA8461
:100610004DED3759CD3F1305897FEF20603FEF2027
:10062000C0398146014681451305A007EF20C0036C
:100630003704CE3F032504FF1309897F9740C3FF8A
:10064000E7800082EF2020039124B73700609C47A9
:100650008347390009472289918311446387E70062
:10066000636DF7063334F00005049740C3FFE7805D
:10067000A0C0AA89032509FFC167FD170841130718
:10068000001085664166931544019730C3FFE780EB
:10069000A07F4E859740C3FFE78040BEEF20D00883
:1006A00001459730C3FFE780606CB7070C60984343
:1006B0001367070498C3D8431377F7FBD8C3B7E78A
:1006C0000C600D47F8C375269921F24062442685D7
:1006D0004249D244B249056182800D472144E386F4
:1006E000E7F811474144E382E7F80944BDBF01112F
:1006F000014506CE9730C3FFE780006EEF40E0284B
:10070000B7B7C4049387F73F63E3A7062247B70749
:100710001C00F98F156713078702D98F3EC49967AC
:100720009387F74F2316F100EF3090630D899317ED
:10073000350122453707E8FF7D17798D5D8D2AC485
:10074000EF30D06705899317250122453707FCFF55
:100750007D17B245798D5D8D2AC4CD21B7870060A4
:10076000F24023A007047D57F8C705618280014548
:100770009730C3FFE780805FB147E319F5F8F9BF11
:10078000C9A6A1460146814515456F10F06DA146E9
:1007900001468145130550036F10106D4111A146AC
:1007A00001468145154506C622C4EF10F06B2A8428
:1007B000A1460146814513055003EF10F06A22055A
:1007C000418DB240224441018280AA858146214662
:1007D00005456F107069AA858146214613051003EF
:1007E0006F109068AA858146414605456F10D06715
:1007F00041118146014681451305A00306C622C466
:10080000EF109066B707CE3F03A507FF9730C3FFF1
:10081000E7800065A146014681451545EF10D0648B
:100820002A848146014681451145EF10F0632285F7
:10083000B240224441018280411126C28146AA84ED
:10084000014681451305A00306C622C4EF10D061FE
:100850003704CE3F032504FF9730C3FFE780406095
:10086000A685814621460545EF101060032504FF4B
:100870009730C3FFE780C05E2244B2409244814675
:1008800001468145114541016F10105E011126CAD4
:10089000B704CE3F03A504FF06CE22CC4AC84EC6FD
:1008A00052C456C25AC09730C3FFE780605B83A72B
:1008B00004FF814649439C43994813D80701939507
:1008C0000701B767CD3F1385C7B91378F80FC1810A
:1008D0009387C7B90347450063160703338666024B
:1008E0003E9603476600034E560022073367C70152
:1008F000034E7600034686002D8F22063366C6011E
:10090000718F09C785064905E39616FD4947B386E9
:10091000E6020544B69703C7A70003C9970083C939
:10092000D70022073367270103C9B70003CB17019C
:1009300042093367E90003C9C7003314640162093F
:100940003369E90003C7E70022073367370183C92A
:10095000F700C20933E7E90083C90701E209B3E9F7
:10096000E9009740C3FFE780A0B0AA8A03A504FF6F
:100970009730C3FFE780C04E0299B37785002A8A7B
:1009800095CB01459730C3FFE78000529740C3FFE6
:10099000E78000AF6244F240D2444249B249224A61
:1009A000024BD685924A1375F50F05611733C3FFC5
:1009B0006700034E8146014681451945EF10D04A34
:1009C00033658A00829903A504FF9730C3FFE7804F
:1009D00020490299618D55F5F2406244D244424962
:1009E000B249224A924A024B056182804111B707FF
:1009F000CE3F22C403A407FF06C6EF10706008C0F4
:100A0000B2402244410182803755CD3FB767CD3F88
:100A100013060571938707813386C7408145130507
:100A200005711733C3FF67002368B755CD3F4111E8
:100A3000854661469385857F014506C6EF200037D0
:100A4000B2403335A0003305A040410182804111FE
:100A500006C6EF30F00F3755CD3F81451305857F32
:100A6000EF202011B2403335A0003305A0404101F2
:100A700082800111B7870060938707000A8506CE40
:100A80003EC222CC02C0EF30B00381450A85EF3070
:100A9000D0080A85EF3050048146014681450A8519
:100AA000EF30C052EF30702C2A840A85EF305001AD
:100AB000096513058532B335A4021306803E8146CD
:100AC0003305A4029740C3FFE78080B32A8691468E
:100AD00081450A85EF30606D0A85EF3010010A8587
:100AE000EF30807F85473EC4B7F7016093870700EA
:100AF00028003EC6EF30C07C28008145EF30F00171
:100B00002800EF30607DF2406244056182806F20F2
:100B100000518280411106C6EF1050710145973097
:100B2000C3FFE780602BEF305066B2407166B76557
:100B3000620213060620938505A0014541016F104E
:100B40009070B70700087390073B93068008F3A7DF
:100B5000063AB707000A7390173BA567138707F09B
:100B60007327073A3707000F7310273B37078800B2
:100B70007326073A3706F20F7310363B37060089A3
:100B80007326063A3786F30F7310463B1306B008F8
:100B90007326163A3786FC0F7310563B1386079060
:100BA0007326163A378601107310663B37068D00A0
:100BB0007326163A37F60D107310763B3706008809
:100BC0007326163A37860F107310863B1306F0080B
:100BD0007326263A3706A0107310963B138607D06B
:100BE0007326263A370600147310A63B7326273A5D
:100BF00037160014130606807310B63B3706008FB5
:100C00007326263A370600187310C63BF3A6363A09
:100C1000B70604187390D63B938707B0F3A7373A0B
:100C2000B7070040FD177390E73B7327373A73907F
:100C3000F73BB7070090F3A7373A828039712EC689
:100C400037870060832607088347C1003746C0FF07
:100C50007D16F18EBA0706DE22DC26DA2AC4D58F8D
:100C60002320F708345B8347D10021811374F53FBB
:100C7000370602FE22457D16F18EC607D58F5581B7
:100C80003CDB1375F50FEF30105322457581EF30C3
:100C9000B055B7E70060F843B7060400938606F046
:100CA000558FF8C3F843B7C6FDFFFD16758F834413
:100CB0008100F8C301459730C3FFE780E011268526
:100CC000EF30703837450F00130505243385A40233
:100CD000EF30B0380808EF30502D0C102285F24468
:100CE000EF30F02619E1EF2030280810EF30503DAA
:100CF0007325207EB335A402268681463305A402DF
:100D00009740C3FFE780C08F7310257EA24713155D
:100D100084003704FCFF1304F40F7D8C498CB70466
:100D2000180022C4E18CB70708006395F40005455C
:100D3000EF30C0739317D40063DA0700B705F0FFF4
:100D4000A69593B515000545EF30007422454981FD
:100D50000589EF30700422454D810D89EF30A07A6E
:100D6000F2506254D25421618280000000000000E1
:100D700000000000000000000000000010E73C4000
:100D8000B02500009357050193F7F70F13070002F2
:100D90006391E704135785001377F70F9306000458
:100DA0009377F50F6316D700B51713B5E700828068
:100DB000930610046316D700A51713B5A700828009
:100DC0009306000501456317D700AD1713B527003B
:100DD000828001458280411106C69308000263F2B9
:100DE000E802B766CD3F3766CD3F9386068A130685
:100DF000C685930570243765CD3F1305758DEF10BB
:100E0000E02663FD0801B766CD3F3766CD3F938688
:100E1000C68E1306C68593058024F1BFB7220060F5
:100E200093880200370F200083AE880003AE88014C
:100E300003A3C80123A4E80183AF8801370F008012
:100E4000B7030010B3EFEF0123ACF80183AF080242
:100E5000FD13370F0070B3FF7F00B3EFEF0123A046
:100E6000F80303AF0802C17F337FFF01336FAF0088
:100E700023A0E80303A58801B70F00C0333FB000EB
:100E8000FD1F7A0F3375F5013365E50123ACA8002A
:100E900003AFC801B70F00041385F5FFFD1F6A05F6
:100EA000337FFF013365AF0023AEA80023A2C80043
:100EB000968513860200630908003705CE3F032597
:100EC00005FF03459501AA96084E370F00E0B33899
:100ED000D0007D1FF6083375E5013365150108CE96
:100EE000484EFD1693F6F603137505FCC98E54CED5
:100EF000144EB70800F83335E000FD186E05B3F660
:100F00001601C98E14CE814601C77D179376F73F2F
:100F10005852137707C0558F58D23CCE1C4EB70697
:100F200000F033370001FD167207F58FD98F1CCE04
:100F30000147630608009307F8FF13F7F73F1C56B5
:100F400093F707C0D98F1CD683A705003707040085
:100F5000D98F23A0F50083A705001397D700E34C92
:100F600007FE2324D601232CC601232E6600284E1B
:100F7000930700026309F800FD57339807011348EF
:100F8000F8FF33750501B240410182803688AE8793
:100F900032878146014681453DBD011122CC37048F
:100FA000CE3F032504FF06CE26CA4AC84EC652C409
:100FB0009710C3FFE780007D832704FF9306D009C5
:100FC0009C4313D707011377F70F6306D7009306E7
:100FD000200C6313D702A1460146814515457D3794
:100FE00042054181937435F4C204C1806300950EBB
:100FF000214A01498149B9A09306800C6313D70A9D
:1010000013D787001377F70F93060004631BD708E5
:1010100093F7F70F55476376F708A14601468145D8
:101020001545AD37AA84A1460146814513055003F5
:10103000B13FC2049379F50FC18013F92900C5C0EF
:10104000214A8144032504FF9710C3FFE780807382
:101050008146014681451945153F81465286A68540
:1010600005452D3763832903032504FF9710C3FF2C
:10107000E78040718146014681451945013F81461F
:101080002146CA85130510031137032504FF971065
:10109000C3FFE780206F8146014681451145FD353C
:1010A00035A0A146014681451545CD35AA84A14606
:1010B0000146814513055003D13D2205458D42056A
:1010C000418193740520414AE31595F2F240624450
:1010D000D2444249B249224A014505618280E395E2
:1010E00029F9EDB7914763F4B702B766CD3F37668C
:1010F000CD3F3765CD3F41119386C68F1306468895
:10110000930500291305758D06C6EF0030768E0510
:101110002A8613F8850F81470147A146E14513054B
:10112000A00555B94111E146014681451305F00975
:1011300006C6A93D931705013707FF00F98F13571E
:1011400005011377F70FD98FB2404167130707F0F6
:10115000798D5D8D41018280411122C43704CE3FDB
:10116000832704FF06C626C28843293919C50145CD
:10117000B2402244924441018280854541459D37D9
:101180001375F50F93070002E313F5FE8146014640
:1011900081451305900BDD3B8146014681451305D2
:1011A0009007ED338146014681451305F00FF93B69
:1011B0001305007D9710C3FFE7800051814601466B
:1011C00081451305B00AD93351459710C3FFE78015
:1011D000A04F832404FFB937832704FF88C08843C6
:1011E0005536134515001375F50F3305A04049B763
:1011F000B797006083A747830145C9839D8B91E31F
:10120000828013F7170019C3134515008583C5BFE6
:10121000011122CC26CA06CE4AC84EC652C456C2B6
:10122000AA849720C3FFE780E0B62A849720C3FFF3
:10123000E78040B749C4935A6400135AC4009359D5
:1012400024011379F50F1375F403618093FAFA03FF
:10125000137AFA0393F9F9031374F403A68597201C
:10126000C3FFE780209EA68556859720C3FFE780B1
:10127000609DA68552859720C3FFE780A09CA68528
:101280004E859720C3FFE780E09BD54763E8870042
:10129000A68522859720C3FFE780C09AD54763E7DC
:1012A00027036244F240B249224A924AA6854A85FF
:1012B000D244424905611723C3FF6700A39835490B
:1012C0003144B949414AC54A3D4549BFF2406244AB
:1012D000D2444249B249224A924A05618280B737D4
:1012E0000060984F1367070C98CF984B1377F7C19E
:1012F00098CB984B019B98CBB7270060984F13670A
:10130000070C98CF984B1377F7C11367070298CB58
:10131000984B019B98CB8280B73600609846B70700
:101320000C00A1075D8F98C6B72600609846D98F3C
:101330009CC682804111054506C6D93DB240410197
:10134000E1BFB7E70C6003A58709058105898280A5
:1013500085473707CE3FA308F7FC3707CE3F230862
:10136000F7FC1713C3FF6700A335411149C53707C1
:10137000016013070700345F8947D1828D8A63813A
:10138000F6088D476383F608B7B7C4049387074010
:1013900085651385F5FFB305A6029386F5FFBE9616
:1013A000B3D6B60292073306D602FD1693F6F60FB1
:1013B000B206B3D7C702504B93D54700E98DC2059B
:1013C0007D75C181698E4D8E50CB504BB70510FF96
:1013D000BD8BFD156D8ED207D18F5CCB3C5F371670
:1013E000F0FF7D163EC6B247F18FDD8E36C6B2479E
:1013F0003CDF410182803707006013070700A5BF6B
:10140000B7373101938707D061B7B7676202938717
:1014100007A0BDBF411122C43724005031469305B7
:1014200004FF7D5506C69720C3FFE780608703272A
:10143000C4FF81476315E5000505B337A000B2403E
:1014400022443E8541018280AA8511467D5517239D
:10145000C3FF6700E3841841FD576307F700084D99
:10146000751513352500828005458280411126C2FD
:1014700006C622C4AA84C53709EDC04C2685E937C3
:101480003305A44013351500B24022449244410173
:1014900082800145D5BF411126C206C622C403443D
:1014A000D5008347C500AA8422045D8CEF10607FBD
:1014B00083C7E4001375F50F6379F5007D54228529
:1014C000B24022449244410182806D143334800042
:1014D00033048040EDB7FD5711C989C983C70500A2
:1014E00003C7150091E7FD5711C385473E858280EC
:1014F00081476DDF1C51084109C663F6A700AA8722
:1015000019A0E36EF5FE898FB337F000C5B70DC59E
:10151000011106CE22CC2A84913F2306A100130597
:101520000402A937A306A1006C0022850546653791
:10153000F2406244056182807D55828037270050E9
:10154000232807FE232A07FE232C07FE232E07FE4F
:101550008280411106C67D3D814701C5B7270050F5
:10156000C117B2403E8541018280411122C406C6A6
:101570002A8499CD453511E1D1373727005083575B
:1015800087FF41178507C207C18399C32314F7005A
:1015900009C81840B727005023A8E7FE584023AADF
:1015A000E7FE37240050930504FF31467D55971020
:1015B000C3FFE780E06E232EA4FEB2402244410127
:1015C00082808547630AF500814709C5894763081A
:1015D000F500FD573E85828099678507E5BF9967CD
:1015E0008907CDBF1305F003828001114AC837591E
:1015F000CD3F130909718347090006CE22CC26CAC4
:101600004EC652C456C2A9EF37073F006367B706FC
:101610002E84C165138AF5FFAA89B374450197101A
:10162000C3FFE780A057AA8A9710C3FFE780405204
:10163000B305440133879500417681474183930682
:10164000000433F6C900B705003C01459710C3FFFD
:10165000E780C05801C956859710C3FFE780405402
:10166000814721A856859710C3FFE78060538547BF
:101670002300F900B707003CA697F2406244D24429
:101680004249B249224A924A3E850561828041110F
:1016900022C43754CD3F130404718347040006C6A7
:1016A00085C79710C3FFE780604F9710C3FFE7809F
:1016B000204A9710C3FFE780E051B767CD3F7D57C1
:1016C0002300040023A8E780B24022444101828025
:1016D000397122DC3364A6004D8C06DE26DA4AD846
:1016E0004ED652D456D25AD05ECE62CC66CA0D883F
:1016F00035EC2E8A2A89C5C2719AB304A600AA893C
:10170000417BB76BCD3F639099022285F2506254C2
:10171000D2544259B259225A925A025BF24B624C4D
:10172000D24C21618280938C0B8183A70C00B3FA89
:1017300069016386FA049710C3FFE78020462A8C6C
:101740009710C3FFE780C040814705479306000418
:101750005686B7053F3C01459710C3FFE780004818
:1017600001C962859710C3FFE78080437D5471BF34
:10177000628523A05C019710C3FFE78060423706B3
:101780003F3C4E96330656411842B3872941D297C3
:1017900098C391098DBF32C69710C3FFE780004000
:1017A0003246AA84D2854A859710C3FFE780C0FFDE
:1017B0002A8426859710C3FFE780803E22856254E5
:1017C000F250D2544259B259225A925A025BF24B09
:1017D000624CD24C2161F5B3411106C69710C3FF8C
:1017E000E78000FCB2404101E9BB914799C29307F1
:1017F00000023377F50221E7B377F60213F73500DD
:10180000D98F95EF011122CC26CA06CEB68432C6F6
:101810002EC42A84EFF06FF80DE5A24532462285EA
:1018200091C89710C3FFE78020F66244F240D2448B
:10183000056141BB9710C3FFE780C0F6FDB77D553A
:101840008280F2406244D244056182808146014632
:10185000814511456FF08FF311C905668147B7685F
:1018600002601306F63F6395B7028280B766CD3FEC
:101870003766CD3F3765CD3F4111938606B51306D8
:1018800086B393052002130575B806C6EF00007EE7
:1018900013F7370091C319EF83A6080B7323207E3B
:1018A00003A8080BB3C606017328207E33086840DE
:1018B000E37806FF0E073308F50033D7E600230070
:1018C000E80085074DB741118147194799461D46E4
:1018D00081451305900606C69720C3FFE780C06FB9
:1018E000B7070460D843B70600FFFD16758FD8C34D
:1018F000B84BB706008093C6F6FF758FB8CB944FF0
:10190000370700017D17D98E94CFD44FB240558F41
:10191000D8CFF84BB706F0FFFD16758FF8CB98437C
:10192000B70600E8FD16758F98C3B786006083A7D9
:10193000C611370700407D17F98F23AEF61041011D
:101940008280B787006003A7C7114111B70600C0A6
:1019500006C622C4558F23AEE710D85B370440007B
:101960009946418FD8DB1D468547194781451305A8
:1019700090069720C3FFE780206681470147854690
:101980001D468145130590069720C3FFE780C0647C
:1019900081470D478D461D468145130590069720CA
:1019A000C3FFE78060638147094789461D4681453B
:1019B000130590069720C3FFE7800062B7070C600D
:1019C000984BB706001037060001558F98CB984FFB
:1019D000B70600F0FD16758F98CFB7070460F84B77
:1019E000B706A0FFFD16758F418FF8CBF84BB706F1
:1019F0001000558FF8CB9843B706001813670704FB
:101A000098C39843558F98C39843E1769386F60719
:101A1000758F1367070898C3D847C1769386F60F6A
:101A2000758F856693860680558FD8C7D847B706C9
:101A300001FFFD16137707F013675700D8C7D84783
:101A4000758FB7066400558FD8C79843B7068000D6
:101A5000558F98C39843B70680FFFD16758F98C3BE
:101A60009843B786FCFFFD16758F98C3984FB7064D
:101A700000FF758FB7069D00FD16558F98CFD44F88
:101A80001307F6FFD98ED4CFD843B71600FFFD1643
:101A9000758FB7460600558FD8C3F84BB240224425
:101AA000137707F01367F700F8CBD44337070080AC
:101AB000F99AD4C3B44BD98EB4CBD843518FD8C381
:101AC00041018280797106D622D426D22A844AD056
:101AD0004ECE5AC85EC662C452CC56CAED330145DA
:101AE0001D25034554001307C409930704028145CB
:101AF0008144014B81490149814B014C370800C4A5
:101B000037068000B70800BE63CCA508032A84000E
:101B10009710C3FFE7808008AA8A9710C3FFE78069
:101B20002003B7570C60930600101387072094C357
:101B30009107E39EE7FE41647D14229933F78B0001
:101B40004A974179814741839306000433762C01FB
:101B5000B3F52B01A294014533748B009710C3FF9A
:101B6000E780C00726949306000433F62901B37575
:101B70002B0181471357040101459710C3FFE780EC
:101B8000A005B7470C60D8435685799BD8C3D84386
:101B9000759BD8C39710C3FFE7808000D921029AB4
:101BA00083A6C7FF33830601637BC300032C0700B2
:101BB00003A90700B68B85051107A107B1B73383C9
:101BC0001601E37AC3FE832907008443368BE5B709
:101BD000FD5741116396F5001C453EC45C4539A094
:101BE000F957639AF50018495C493AC43EC6224544
:101BF000B24541018280BD4763EAB700832785096A
:101C000063D6F50089058E052E95F9B702C402C684
:101C1000F9BF011126CAAA8413D5C50022CC06CE6D
:101C20002E8432C6553EB24611E922856244F24006
:101C3000A685D24413060002056145BEF240624407
:101C4000D24405618280797122D426D206D6AA8434
:101C50002E8463CE0502B757CD3F83C7177185CB5E
:101C600071469305F00F48009710C3FFE78000D638
:101C7000930714003EC00A8589473ECCEFF0CFFCA5
:101C80002ACEEFF0EFD68C402A860A855937A285F6
:101C900026853D3F2AC02EC20A858545EFF0FF8C80
:101CA000B25022549254456182805C4191CB4111E3
:101CB00006C6EF009035B240133515004101828011
:101CC000014582800111856522CC938505C02A8457
:101CD000216506CE26CAEFF05F9119E50145F24075
:101CE0006244D2440561828070008545AA84EF0079
:101CF000D0326DF593872400930600024146854556
:101D000032476346E500268559320545C9BF03C7FA
:101D1000070019C7630FB704050593870702CDB7FE
:101D200003C717000DCB630FD702137807FFE31526
:101D3000C8FE3D8B03A8270009070E07229723241E
:101D4000070103A867002326070103278409050765
:101D5000232CE408D1B703A7270018C403A7670002
:101D600058C45DBF03A7270018C803A7670058C859
:101D700065B703C717004DF303A7270018C003A7D3
:101D8000670058C051BF5D71A2C42A84084186C64D
:101D9000A6C2CAC009E9FD54B640264426850649B4
:101DA0009644616182804C40896763F5F500930435
:101DB000D0F9DDB7EFF07F83AA8475D9AA85130621
:101DC00000020A859710C3FFE78080C08565A6954D
:101DD0001306000208109710C3FFE78060BF268536
:101DE000EFF0FF8AB754CD3FA3880470EFF04FC0E7
:101DF000624785472A89938414716318F7000C4061
:101E000091472A860A853ECC293562578547631A51
:101E1000F70091473EDC1C4085654A86BE95081058
:101E2000CD3B0A85EFF02FE321E583278409A9C77D
:101E30000A85EFF0CFEDFD57E30FF5F413175500CA
:101E40009C00BA9783A407FC83268409FD14B3F48D
:101E5000D40283A687FDA9F2854623ACD7FC1C409B
:101E60009315C5004A86BE953305E1005D332DB755
:101E70000810EFF04FDE55D91C44E39E07F00247EF
:101E8000FD576310F7020257FD576308F7007254BD
:101E90000810EFF06FDB630CA40085472380F4008B
:101EA00039A072440A85EFF02FDAE31EA4FC8144C6
:101EB000E5B56D710145232611109700C3FFE7803A
:101EC000207D9547631EF500EFF0AFE811C98A85C4
:101ED000EF00301411E58545EFF02FE90A85DD3676
:101EE0008320C11051618280411106C69D2A1305CD
:101EF000803E9700C3FFE780207DB78700603707EB
:101F0000008098C301A06971232291122326111227
:101F10002324811223202113232E3111F957AA845F
:101F2000638AF5022E842E89FD59635B390383A7EA
:101F3000840905046347F4040C0813850401B533D0
:101F400011ED13060010814508089710C3FFE780C4
:101F5000E0A7593F0C084105893B65DD08089D361F
:101F6000CA852685B5312EC6B2472AC489CB0C084E
:101F70002800253B09C5CA852685F131C5B77D19DD
:101F80006DB7A2852685A9312EC6B2472AC4C5D30E
:101F90000C082800193B41DDA285F9BF8280411160
:101FA00006C622C49710C3FFE78040D13754CD3F07
:101FB0001305047289459710C3FFE780E0D013052D
:101FC0000472B240224441018280411106C619EDDB
:101FD000B766CD3F3766CD3F938686A4130646A1EC
:101FE000E9453765CD3F130575A84920937736003D
:101FF00099CBB766CD3F3766CD3F938686A913064A
:1020000046A1ED45F9BFB2403755CD3F8146130596
:10201000057241011713C3FF6700C3CB15E1B76613
:10202000CD3F3766CD3F3765CD3F4111938686A4BE
:102030001306C6A293051002130575A806C63D2017
:102040003755CD3F89E91306800D13050572171327
:10205000C3FF6700A397130505721713C3FF67003B
:10206000A3C701451703C3FF67000369B2872A8628
:102070003765CD3F4111368713054581AE86BE8554
:1020800006C69700C3FFE780206301A03765CD3FF8
:1020900041119385D0FF1305858306C69700C3FFC2
:1020A000E7808061B7E70C6083A78709898B91C3BC
:1020B000029001A0B787006003A7C7106D9B23A6FD
:1020C000E71003A7C70A19C5B7060200558F23A654
:1020D000E70A82808176FD16758FD5BFB7870060CD
:1020E00003A7C710759B23A6E71003A7870D19C583
:1020F000B7060010558F23ACE70C8280B70600F0BE
:10210000FD16758FCDBFB787006003A7C710799BF9
:1021100023A6E710D85B11C5B7061000558FD8DB92
:102120008280B706F0FFFD16758FD5BF411122C41E
:1021300026C206C68347B5012A84AE8481CB19EE38
:102140008327C40D93870702232EF40C8327C40D25
:10215000014563F1F4020965090529A808418327AF
:10216000C40D8546130600029305040E3E95EFF05C
:102170002FD679D5B2402244924441018280411148
:1021800006C66340B502B766CD3F3766CD3F93863E
:10219000869413060691F1453765CD3F1305F597F3
:1021A000F135634CD600B766CD3F3766CD3F938699
:1021B000469913060691F545C5B781476354B600A5
:1021C000B327D500B2403E8541018280411122C42F
:1021D0002A84014506C69700C3FFE780604BB70716
:1021E00000BEA2973707800063EDE702B70700C47F
:1021F000A297AA86014563E2E702B7070010636E63
:10220000F40095470545639AF600370500B02A9417
:1022100009653335A40013451500B240224441013D
:1022200082800145DDBF18418327C50D1D71A6CAF7
:10223000BA973EC6B2449307C509CEC6D6C2DAC025
:102240006ED686CEA2CCCAC8D2C45EDE62DC66DAA6
:102250006AD8AA892ECAB28D368B3EC4930AC501AC
:1022600002C283C759001247634FF70083A70900D2
:1022700063EEF40283A7C90D32470144998FBE94DF
:1022800023AE990C35A085462146D6852685EFF0EC
:102290002FC42A8411ED63860D002146D6856E85F4
:1022A0002D3303A94A00937739009DC309640904BB
:1022B0002285F6406644D6444649B649264A964A9F
:1022C000064BF25B625CD25C425DB25D256182804E
:1022D000B7070001E37CF9FC03AA0A00B70700BEB8
:1022E00037078000D297138D840063E7E700B707B4
:1022F00000C4D29763F7E700B347AA01C207C183BE
:10230000D5F7D247638907145285C9352AC86304B3
:102310000514054463010914D284B30C2A01014455
:10232000370C38C063889C1263C19403B766CD3FF5
:102330003766CD3F3765CD3F9386069C13060693DF
:102340009305D0151305F59F1533B3868401B70B9C
:10235000060063F37607B70738C0FD17B386FC00A5
:1023600063FE760D0A88B7E5CD3F6175E686268661
:10237000938505714295213515F9B765CD3F3755E0
:10238000CD3FE6862686938585C413050571C53B3A
:1023900011FD69E0E6862686B705CE3F3705C83FC2
:1023A000F93B4DC9B70670003386D4003387DC0093
:1023B0004244BA8CB284BDB7B747C8BFB386F400F5
:1023C0003746060063FCC606FD17B386FC0063F7BC
:1023D000C606B7173D409385E7CBB7E73C40E68696
:1023E000268613850771613BE31205EC25E4E6863A
:1023F0002686B7053E4037053840513321CDB70713
:10240000C8BFB386F4003706C83F63F576013706C8
:1024100090FF2696B707C8BFFD17B386FC00B70527
:1024200006003707CE3FE3F5B6F8370790FF66970B
:10243000E350C7F8B2873A863E879DBFB70600B023
:102440003387D4000966E373C7E6FD16B387DC0063
:10245000E3FEC7E40544EFF0EF98416C9307FCFFFF
:102460003ECCB757CD3F2AC8EA8B938C4771631097
:102470000902A247A10A23A0A701924783A4CAFF89
:1024800085073EC2A247EA9491073EC4D9BBE24702
:10249000B3F4FB00C247B3349000B3849740C20446
:1024A00063739900CA8419E063060B02A6855E85F2
:1024B000EFF0AF932A8C59CD63190B0263970D028D
:1024C000AA85268652859700C3FFE7806050628503
:1024D000EFF0EF9BA69B3309994051BFB757CD3F13
:1024E000A14513854771EFF02FB783A70C00FDD7E7
:1024F00083A74C00E5D78147E3FB97FCB305FC00BD
:10250000944163070B0003260B00358E2320CB007C
:1025100009CC3757CD3F13F64700130747710DCA53
:1025200010433305FA00B18E14C163810D0293F696
:10253000F73F89EE3386F440130700406374C70009
:10254000130600406E853ECE4934F24791076DB7C1
:102550005043C1BF7D54A9BB1D7186CEA2CCA6CA73
:10256000CAC8CEC6D2C4D6C2DAC05EDE62DC66DAC3
:102570006AD89377D5FFC5E39307F00E3EC4054BA9
:10258000854B130D810083AC050002C6DE8A639380
:102590000C00814A13042010630C061AD841B707B7
:1025A0000001B2842E8A2A8963EBE724130CC10050
:1025B00063930A00014C938944001306C00F8145C0
:1025C0004E859700C3FFE7806040854623A09401B5
:1025D0006146CE856685EFF0AF8F2A8405E163966C
:1025E0000B04B249E147791923AEF40CEA864E8612
:1025F00093352900268505392A8425CD324519C110
:102600008145293C13060010814526859700C3FFAC
:10261000E780C03B35AA9307F00E3EC48547E30030
:10262000F5F6014B814B014DB9BF83C7B40189CF8A
:10263000630C0C00EFF0BF962320AC006304051C74
:102640006146CE85EFF07F9803C744009307900E54
:102650006305F7000964090455B785454E85EFE029
:102660009FE32A8441FD03C75400C147E3FBE7F61B
:10267000D5B7854C63850B00EFE0BFCCAA8C83A750
:10268000C40D224C938B070193FB0BFFB38BFB40D4
:10269000638F0C0C639D090C83A7C40D83254A002E
:1026A0005A86BE9B23AE740D268549342A8439F59B
:1026B00063840A0663820906EFE0BFC831ED1306A2
:1026C0000002814508089700C3FFE78020304E854F
:1026D0000C08EFF0BF943766CD3F1306069A9305BA
:1026E00000020808EFF09F8B9389040E1306000286
:1026F0000C084E859700C3FFE780002E2A8401CD89
:102700003766CD3F1306069B930500024E8509648C
:10271000EFF0DF88090402C6324509C58145EFF0B4
:10272000FF8F02C6E31C04EC854763E32703375998
:10273000CD3F832749711309497199CB83274900FC
:1027400081CB9389C401014A83C754006349FA06C7
:102750002285F6406644D6444649B649264A964AFA
:10276000064BF25B625CD25C425D256182808840F0
:1027700085465E860C083E95EFE09FF52A84E31FB0
:1027800005E6638A0C00E38909F05E860C084E8535
:10279000EFF0BF8311B713570C0193578C01B98F1A
:1027A00018185E97B3C787010347F7FD135C8C00C9
:1027B000B3C7870193F7F70FE31EF7E8E9B783AADA
:1027C00009005685EFF09FA00DE9050AA109ADBFEC
:1027D00013972700569713F61700144301CE0326CC
:1027E0000900B18E14C3850703A749000983E3E1FB
:1027F000E7FEE1BF03264900EDB78147F5B71304B3
:102800002010EDBB13041010D5BB2E86AA850945F8
:10281000A1B32E86AA850D4581B3B707CE3F83A706
:1028200007FF717122D526D34AD14ECF52CD56CB58
:102830005AC95EC706D71569BD6903AA4700AA8AA7
:10284000328B23200600AA84014701441309A90AF8
:102850009389B9BE930B000683D704001316540066
:10286000639C2701DC406366FA009444B697637565
:10287000FA0413054010A9A832C66395370539E755
:1028800028109700C3FFE78060403246D6852810A5
:102890009700C3FFE780C03F2C1028089700C3FFB4
:1028A000E780403F41462C08138504019700C3FF91
:1028B000E780801201ED0547050493840402E31DBF
:1028C00074F929A09440FD57638FF600130530106A
:1028D000BA502A549A540A59FA496A4ADA4A4A4B6F
:1028E000BA4B4D618280198C23208B000145CDB7F6
:1028F000797122D426D22E84B2848145214636C6EF
:1029000006D69700C3FFE780600C0547AA87B2464A
:10291000631BE40E37F7016013070700D8C380C3B9
:102920003747D850DC43130717AA858A75E823A4D4
:10293000E70A03A70709370600801346F6FF718FE1
:1029400023A8E70803A70709370600907D16718FB3
:1029500023A8E70803A70709370600F27D16718F41
:1029600023A8E70803A70709370640FE7D16718FE5
:1029700023A8E70803A707093706C8FF7D16718F4C
:1029800023A8E70803A707098E063ACC6247137706
:1029900007F03ACC624723A8E70803A70709137793
:1029A000F7EF23A8E708F84713678700F8C7B8438D
:1029B0005D9BD98EB4C303A70709856693860680FD
:1029C0001367074023A8E70803A70709558F23A823
:1029D000E70803A70709B70607001367072023A81E
:1029E000E70803A70709558F23A8E70803A70709E6
:1029F000B966558F23A8E70823A4070AB2502254CA
:102A000092544561828009476317E40037070260EA
:102A10001307070021B73787006013070700FDBDC4
:102A2000F8D3B847370600801346F6FF718FB8C752
:102A3000B847370600A07D16718FB8C7B847B705ED
:102A40004000370600E84D8FB8C7B8477D168606A8
:102A5000718FB8C7B847370600FA7D164D8FB8C7D3
:102A6000B847C204718FB8C7B847370680FE7D16D5
:102A70004D8FB8C7B847718FB8C7B8474D8FB8C723
:102A8000F85F13672700F8DFB85B759BD98EB4DB5E
:102A9000B847B7061C00558FB8C7B847B7860300BC
:102AA0004D8FB8C7B847558FB8C7B8474D8FB8C70F
:102AB000F8473ACE724642064182458E32CE724780
:102AC000F8C7B847D98DACC723A2070605BF184180
:102AD0005C4149EF05479D8A6383E50499C909472D
:102AE000638CE5040D476386E506411106C6EFF0E9
:102AF000EFD903A70709B7050090FD156D8FF20602
:102B0000D98E23A8D70837970060032747834183CE
:102B10000D8B05073357E60023AAE708828003A739
:102B20000709B70500F2FD15E6066D8FD98E23A8BB
:102B3000D70823ACC708828003A70709B70540FE62
:102B4000FD15DA066D8FD98E23A8D70823AEC708E6
:102B5000828003A70709B705C8FFFD15CE066D8F54
:102B6000D98E23A8D70823A0C70A82800547638A85
:102B7000E50289CD09476381E5040D476389E504D2
:102B8000B847B7064000558FB8C78280B847B70529
:102B900000A08D8AFD15F6066D8FD98EB4C7B0CB17
:102BA000C5B7B847B70500E88D8AFD15EE066D8FED
:102BB000D98EB4C7F0CBE9B7B847B70500FA8D8A0C
:102BC000FD15E6066D8FD98EB4C7B0CF55BFB84797
:102BD000B70580FE8D8AFD15DE066D8FD98EB4C7D0
:102BE000F0CF79BF1441B747D8505841938717AAFF
:102BF00081E62324F70A82807CD3828018415C41DD
:102C000001E723A4070A828023A2070682801841D5
:102C10005C4111EF83A6470A37060080D18E23A2BC
:102C2000D70A03A70709518F23A8E7088280054721
:102C3000B8D3B847B7060080558FB8C7828018410F
:102C40005C41858919EB03A70709FD76FD16B205DE
:102C5000758FD98D23A8B7088280B847F176FD1605
:102C6000758FBA05D98DACC7B847B7064000558FE8
:102C7000B8C78280411106C622C421282A841520A3
:102C800093074006B307F402B240224441013E9547
:102C90008280B797006093870780A84F61810D8974
:102CA0008280B797006093870780A84FBC4B518103
:102CB000C9839D8B21893E958280378700601C43A4
:102CC00093E707541CC3B757CD3F23AE07708280EC
:102CD00093070005630BF5009307000A8546630719
:102CE000F500411106C6EFF06FBA8146B7070C60D8
:102CF0009847719B558F98C7B84FFD769386F63FDE
:102D0000137707C0B8CFB84F758F13670740B8CF98
:102D1000B7574B4C378700609387B7C4232EF70A09
:102D20001703C3FF6700C3EDB7870060B4531317E1
:102D3000150137060E00718F3706F2FF7D16F18EF2
:102D4000558FB8D3B4531357650049767D161D8B44
:102D5000F18E3607558FB8D3B45313579500797653
:102D60001D8B1306F63FF18E2A07558FB8D3B85343
:102D70000D81137505201377F7DF598DA8D3B8534C
:102D8000C166558FB8D3828005651305356C69BF60
:102D900011C1DDBFB7870060B853C176FD16136758
:102DA0000708B8D3B853758FB8D3828031C5378739
:102DB00000603C5B01112EC606CE93F7F7FB3CDBAF
:102DC0005C4FF1769386F603F58F93E707145CCF9B
:102DD000130520039700C3FFE780008F378700604B
:102DE000B2453C5B99C593F7F7F7F2403CDB0561D0
:102DF000828093E70708D5BF378700603C5BF17698
:102E00009386F60393E707043CDB5C4FF58F93E76B
:102E100007505CCF378700603C5B89C593F7F7F7B5
:102E20003CDB828093E70708E5BF378700603C5BA7
:102E3000B7060040FD16F58F9316E501D58F3CDBF4
:102E40003C5B85461307001093F7F7EF6303D5004B
:102E50000147D98F378700603CDB3C5B370700FCBC
:102E60007D178946F98F370700046303D5000147B2
:102E7000D98F378700603CDB1305C0121703C3FFEF
:102E800067008384B7870060A85B79818280B787F9
:102E90000060BC5B05472165F9836380E70291C749
:102EA00009476389E7000145828037150200130551
:102EB000053482804565130575B08280B786006051
:102EC000BC5A370700207605798D370700E07D175B
:102ED000F98F5D8DA8DA0D4517F3C2FF6700C37E39
:102EE000B7870060A85B758105898280B7E70060BD
:102EF000B843011156C206CE22CC26CA4AC84EC6D5
:102F000052C46D9BB8C3B843AE8A13678700B8C379
:102F10009307001E37070C606390F5101C4793E77A
:102F200047001CC7930700026313F50E81499144C3
:102F3000694905449306B0061146814513056006AC
:102F40009710C3FFE7800009228A93964400C18E40
:102F500009468145130560069710C3FFE780800787
:102F6000CA860D468145130560069710C3FFE780AA
:102F70006006D287014789461546814513056006DC
:102F80009710C3FFE7804005D28711479946154641
:102F90008145130560069710C3FFE780E00393E6C1
:102FA000090919468145130560069710C3FFE7809C
:102FB000600289470147854625468145130560061D
:102FC0009710C3FFE780400189471147954619468E
:102FD0008145130560069710C3FFE780E0FF854732
:102FE00019479D4619468145130560069710C3FF92
:102FF000E78080FEF2406244B757CD3F23AE577161
:10300000D2444249B249224A924A056182808D499E
:1030100095442149014439BF1C47ED9B1CC79307C8
:1030200000026312F5021949054493069006114601
:103030008145130560069710C3FFE780A0F98D490D
:103040009544014A19B711490144C5B7B7870060D3
:1030500083A7870B13950701418113D707016317D6
:10306000E500FD1775576363F70082801305800242
:103070008280011122CC2EC606CE2A84C13FB245E1
:103080006364850233578502AA8793561700AA9670
:10309000B3D6E60201456313D402814694C1DCC174
:1030A00098C5C0C5054519A893070005630CF40031
:1030B0009307000A01450D476307F400F24062449C
:1030C00005618280194785469307001EC1BF4111E3
:1030D000B7070C6022C4A04F4AC006C6298026C28A
:1030E0000D8805472A89630DE40211C489476300EE
:1030F000F406EFE0BFF9A44F913F93F4F43F850449
:10310000B357950223208900B2402244232499001A
:103110002322A9002326F90092440249410182801A
:1031200098479C470D8B8983858B95E71305001481
:1031300019E793070005914413050014E1B785478B
:10314000E319F7FA05449307000A8D4465BFA147C8
:103150008544214545BF1305001E75F33E849944FF
:10316000930700051305001E71BF93170501C18366
:1031700042055D8DB787006023ACA70A828031814C
:1031800093170501C18342055D8DB787006023AEAB
:10319000A70A8280011122CC06CE2A842EC697006F
:1031A000C3FFE780E0A5B7070C60B84FB2453745CD
:1031B0000F00137707C0B8CFB84F13050524FD15CE
:1031C0003305A402137707C093F5F53FD98DACCF33
:1031D000B84FFD7662449386F63FF240758FB8CFC4
:1031E000056171BF011126CAB7040C6022CCA04C46
:1031F0001C414AC8298006CE4EC62A890D8885EB17
:103200000C454845413F8547631CF408B7370460C7
:1032100093870700DC438583858B6383870862443B
:10322000F240D2444249B24905616FF01FA9854975
:1032300063983703630CF400378700601C4393F7EF
:10324000F7AB1CC32135832549004D31624403256A
:10325000C900F240D2444249B24905616FF05FA70C
:103260000947639FE70221459700C3FFE780409924
:10327000BC4C7D771307F73F93F707C0BCCCBC4C21
:10328000F98F056713070780D98FBCCCB717B0102B
:10329000378700609387070B232EF70AE30834F77C
:1032A000F2406244D2444249B24905618280B78704
:1032B000006083A7C70B37F5FF0FB207E98F37A56B
:1032C000070013050512AA9737450F0013050524BB
:1032D00033F5A7023385A7408280B7870060F85B8B
:1032E000B706C0FFFD16758FF8DBF85BB706807F69
:1032F0005E05758DB7068080FD16758F598DE8DBEC
:10330000F85BB7064000558FF8DB8280B787006016
:10331000B85B9D6632055D9BB8DBB85B758DE57665
:10332000FD16758F598DA8DBB85B13678700B8DB76
:10333000828000000000000000000000000000CCBF
:1033400084E3D41946F21D1615A1C1F0E102795D9E
:10335000018D6EEFCBD53E9A9FFCC3D5F5BACF2831
:10800000AA50010200900000005000006E7673003C
:108010000000000000000000000000000000000060
:10802000AA50010000E00000002000006F746164AD
:10803000617461000000000000000000000000000A
:10804000AA500010000001000000140061707030A0
:108050000000000000000000000000000000000020
:10806000AA5000110000150000001400617070316A
:108070000000000000000000000000000000000000
:10808000AA50018200002900000016007370696682
:108090006673000000000000000000000000000007
:1080A000AA50010300003F0000000100636F7265E9
:1080B00064756D700000000000000000000000000A
:1080C000EBEBFFFFFFFFFFFFFFFFFFFFFFFFFFFFE8
:1080D000972DAE2FF872A0142D60BAD124C0666B14
:1080E000FFFFFFFFFFFFFFFFFFFFFFFFFFFFFFFFA0
:1080F000FFFFFFFFFFFFFFFFFFFFFFFFFFFFFFFF90
:10810000FFFFFFFFFFFFFFFFFFFFFFFFFFFFFFFF7F
:10811000FFFFFFFFFFFFFFFFFFFFFFFFFFFFFFFF6F
:10E0000001000000FFFFFFFFFFFFFFFFFFFFFFFF1B
:10E01000FFFFFFFFFFFFFFFFFFFFFFFF9A98434750
:10E02000FFFFFFFFFFFFFFFFFFFFFFFFFFFFFFFF00
:10E03000FFFFFFFFFFFFFFFFFFFFFFFFFFFFFFFFF0
:10E04000FFFFFFFFFFFFFFFFFFFFFFFFFFFFFFFFE0
:10E05000FFFFFFFFFFFFFFFFFFFFFFFFFFFFFFFFD0
:10F0000000000000FFFFFFFFFFFFFFFFFFFFFFFF0C
:10F01000FFFFFFFFFFFFFFFFFFFFFFFFFFFFFFFF00
:10F02000FFFFFFFFFFFFFFFFFFFFFFFFFFFFFFFFF0
:10F03000FFFFFFFFFFFFFFFFFFFFFFFFFFFFFFFFE0
:10F04000FFFFFFFFFFFFFFFFFFFFFFFFFFFFFFFFD0
:020000040001F9
:10000000E905022FC81E3840EE0000000500000080
:1000100000FFFF000000000120000F3C986D03006E
:100020003254CDAB000000000000000000000000D2
:100030006573702D6964663A2076342E342E342030
:1000400065386264616639313938000000000000AB
:1000500061726475696E6F2D6C69622D6275696C71
:100060006465720000000000000000000000000055
:1000700031383A31343A30370000000000000000D7
:100080004665622020382032303233000000000004
:1000900076342E342E3400000000000000000000F2
:1000A0000000000000000000000000000000000050
:1000B000647E9BCAFB9C520B0B44A2D2C23E57F2F9
:1000C00075DBB6BD9389CD214F0FB5B0F452F1FD6C
:1000D0000000000000000000000000000000000020
:1000E0000000000000000000000000000000000010
:1000F0000000000000000000000000000000000000
:1001000000000000000000000000000000000000EF
:1001100000000000000000000000000000000000DF
:10012000776966692073746F703A206F7574206FF9
:1001300066206D656D6F72792100000077696669D0
:100140002073746F70207374616765323A206F7525
:1001500074206F66206D656D6F727921000000005C
:10016000776966692073746F702073746167653393
:100170003A206F7574206F66206D656D6F727921FE
:10018000000000006661696C656420746F20706F08
:100190007374206576656E743D2564207265743DC8
:1001A0002564000077696669206970633A2066619A
:1001B000696C656420746F20706F73742077696652
:1001C00069207461736B0000616C6C6F63206E65F5
:1001D0007438303231312066756E63732066616920
:1001E0006C0A000077696669206465696E6974202D
:1001F000696E7465726E616C3A2077696669206E0B
:100200006F742073746F7000424950207265706C77
:100210006179206465746563746564004D494320A9
:10022000636F6D7075746174696F6E20666F722094
:10023000424950204661696C6564287265733D25AA
:10024000642900004D4943206D69736D61746368D2
:1002500020666F7220746865204263617374204D5C
:10026000676D74206672616D65287265733D2564E3
:100270002900000025732025640A0000496E76617C
:100280006C6964204D4D49450000000042495020F2
:100290007265706C6179206465746563746564006F
:1002A0004D494320636F6D7075746174696F6E2082
:1002B000666F7220424950204661696C65642872FD
:1002C00065733D25642900004D4943206D69736DB8
:1002D0006174636820666F72207468652042636190
:1002E0007374204D676D74206672616D6528726548
:1002F000733D256429000000496E76616C696420B5
:100300004D4D4945000000004661696C65642074EC
:100310006F20616C6C6F63617465206D656D6F72C9
:100320007920666F722046544D2052657175657351
:1003300074206672616D6521000000004163745491
:10034000783A20506F7374696E6720746F20484D3F
:100350004143206661696C6564210000496E7661E5
:100360006C6964204945206C656E677468202D2097
:10037000256420666F722049452054616767656473
:100380002030782578000000556E6B6E6F776E20F8
:10039000456C656D656E74204964202D203078258C
:1003A0007821000041637454783A20506F73746967
:1003B0006E6720746F20484D4143206661696C650B
:1003C00064210000496E76616C6964204945206CA7
:1003D000656E677468202D20256420666F72204941
:1003E00045205461676765642030782578000000F7
:1003F000556E6B6E6F776E20456C656D656E742003
:100400004964202D20307825782100004E6F207619
:10041000616C69642046544D204D65617375726549
:100420006D656E747320666F756E64210000000048
:100430004661696C656420746F20616C6C6F6361E8
:10044000746520666F722046544D207265706F721D
:10045000742100006661696C20746F2067657420E8
:100460006368616E206C6F636B0000004661696CAD
:10047000656420746F2073746172742043686D200A
:100480006F702100496E76616C69642042757273E9
:100490007420506572696F64282564292C20427588
:1004A000727374204475726174696F6E28256429B3
:1004B00020636F6E66696775726174696F6E210083
:1004C00025732025640A000025732025640A000096
:1004D00025732025640A000025732025640A000086
:1004E00025732025640A000025732025640A000076
:1004F00025732025640A000025732025640A000066
:10050000616464626120726573706F6E73652063ED
:10051000623A206273736964206368616E67652064
:1005200066726F6D20253032783A253032783A2560
:100530003032783A253032783A253032783A2530E0
:10054000327820746F20253032783A253032783A6C
:10055000253032783A253032783A253032783A25CB
:1005600030327800616464626120726573706F6E0E
:1005700073652063623A20617020636F6E6E206441
:10058000656C657465640000616464626120726515
:1005900073706F6E73652063623A206170206273BE
:1005A000732064656C657465640000006164646256
:1005B0006120726573706F6E73652063623A207399
:1005C0007461747573202564206E6F742073756375
:1005D000636573732C206E6F206E65656420746F85
:1005E00020636F6E666967757265206861726477F3
:1005F0006172650074617020746F20696E64657843
:100600003A206E756C6C2062737300007461702008
:10061000746F20696E6465783A206E756C6C206327
:100620006F6E6E0025732025640A000061646462A9
:100630006120696E6465783A20756E6B6E6F772005
:10064000636F6E6E3D2570006661696C6564207431
:100650006F207374617274206164646261207469D4
:100660006D65720025732025640A00007261702098
:100670006D656D206661696C207469643D25640058
:100680007278615F6562206D656D206661696C20BE
:100690007469643D256400006167655F72656F720F
:1006A0006465723A206E756C6C2072617000000097
:1006B00025732025640A000025732025640A0000A4
:1006C00025732025640A000025732025640A000094
:1006D00025732025640A000025732025640A000084
:1006E00025732025640A000025732025640A000074
:1006F00025732025640A000025732025640A000064
:1007000025732025640A000025732025640A000053
:1007100025732025640A000025732025640A000043
:1007200025732025640A000025732025640A000033
:1007300025732025640A000025732025640A000023
:1007400025732025640A000061646462612072657B
:1007500073706F6E736520696E76616C696420706A
:100760006172616D00000000616464626120726505
:1007700073706F6E73652063623A207374612063D7
:100780006F6E6E2064656C6574656400616464629C
:100790006120726573706F6E73652063623A2073B7
:1007A0007461206273732064656C65746564000015
:1007B00025732025640A0000616C6C6F63206368F8
:1007C000616C6C656E67653A206F7574206F66208A
:1007D0006D656D6F7279210025732025640A000014
:1007E000415020686173206E6569746865722044A9
:1007F00053535320706172616D65746572206E6F22
:100800007220485420496E666F726D6174696F6E14
:100810002C2064726F7020697400000025732025FD
:10082000640A000025732025640A00002573202532
:10083000640A000025732025640A0000706172615B
:100840006D6574657220636F6E6669672073686F8B
:10085000756C64206E6F74206265204E554C4C00A0
:10086000696E76616C6964206D61676963206E757D
:100870006D6265722025782C2063616C6C2057496D
:1008800046495F494E49545F434F4E4649475F448E
:10089000454641554C5420746F20696E697420633D
:1008A0006F6E66696700000077706120637279700F
:1008B000746F2066756E6373206578706563746508
:1008C000642073697A653D25642076657273696F6B
:1008D0006E3D25642C2061637475616C2073697AA8
:1008E000653D25642076657273696F6E3D256400F1
:1008F00073746174696320727820627566206E7506
:100900006D626572202564206973206F7574206F95
:10091000662072616E67650064796E616D6963203F
:10092000727820627566206E756D6265722025642E
:10093000206973206F7574206F662072616E676521
:10094000000000007374617469632074782062751C
:1009500066206E756D626572202564206973206F54
:100960007574206F662072616E67650064796E61D0
:100970006D696320747820627566206E756D62659E
:1009800072202564206973206F7574206F66207251
:10099000616E6765000000007478206275662074DF
:1009A000797065202564206572726F720000000006
:1009B0006D616E6167656D656E742073686F7274CA
:1009C00020627566206E756D6265722025642069EF
:1009D00073206F7574206F662072616E676500000A
:1009E00072782062612077696E646F7720256420B9
:1009F0006572726F72000000696E76616C696420C6
:100A0000636F72652069642025640000496E20666A
:100A1000756E6374696F6E2025732C206661696C36
:100A200020746F2072656769737465722066756ED5
:100A30006374696F6E210D0A0000000077696669B2
:100A40002073746F70207374616765206572726FB4
:100A5000722C2073746167653D25640A00000000F4
:100A60007770613220656E7420656E61626C652CF2
:100A700020696E76616C696420706172616D2825F1
:100A8000702900007770613220656E7420656E6198
:100A9000626C652C20696E76616C6964207061728D
:100AA000616D282570290000696E76616C6964208B
:100AB00069706320636667007374612069732063E3
:100AC0006F6E6E656374696E672C207265747572E3
:100AD0006E206572726F7200696F63746C5F707202
:100AE0006F636573733A20696E76616C6964206127
:100AF00072670000696E6974206E76733A206661D1
:100B0000696C65642C207265743D257800000000D6
:100B1000696E76616C69642077696669206E7673A8
:100B2000206B657920696E6465782025640000007B
:100B30006E767320696E76616C6964206D696E20D3
:100B40002564206D6178202564000000776966695E
:100B5000206E76732063666720616C6C6F63206F14
:100B60007574206F66206D656D6F727900000000EE
:100B700025732025640A000025732025640A0000DF
:100B800025732025640A000025732025640A0000CF
:100B900025732025640A000025732025640A0000BF
:100BA00025732025640A000025732025640A0000AF
:100BB00025732025640A000025732025640A00009F
:100BC00025732025640A000025732025640A00008F
:100BD00025732025640A000025732025640A00007F
:100BE00025732025640A000025732025640A00006F
:100BF00025732025640A000025732025640A00005F
:100C000025732025640A0000736574757020726175
:100C100074653A206F7574206F66206D656D6F7214
:100C20007921000025732025640A00002573202502
:100C3000640A000025732025640A00007770615F54
:100C4000636F6E6669675F70617273655F737472FC
:100C5000696E67206973206E756C6C005341452086
:100C60004832452064697361626C6564000000006D
:100C70006E756C6C207770615F70617273655F7701
:100C800070615F69650000006E756C6C2077706143
:100C90005F70617273655F7770615F696500000006
:100CA0006E756C6C207770615F70617273655F77D1
:100CB00070615F696500000025732025640A0000EB
:100CC00025732025640A000025732025640A00008E
:100CD000777061206D69636861656C206D69632060
:100CE0006661696C75726520636220656D707479E8
:100CF00000000000696E76616C69642061633D25C7
:100D00006400000025732025640A00004173736F9E
:100D100063696174696F6E207265667573656420BE
:100D200074656D706F726172696C792C20636F6D80
:100D3000656261636B2074696D65202564206D5365
:100D40006563000053657420737461747573207457
:100D50006F20494E495400004D656D20616C6C6FE9
:100D600063206661696C20666F72205341205120B8
:100D7000726571004D656D20616C6C6F63206661FA
:100D8000696C20666F72205341205120726571009A
:100D900025732025640A000025732025640A0000BD
:100DA00074696D656F757420627574206661696C15
:100DB00020746F20676574206C6F636B2C207479CE
:100DC00070653D256400000074696D656F75742061
:100DD0007768656E205769466920756E2D696E6962
:100DE000742C20747970653D256400006661696C1F
:100DF00020746F20706F73742074696D65722C207D
:100E0000747970653D2564006661696C20746F209B
:100E1000616C6C6F632074696D65722C20747970DD
:100E2000653D25640000000025732025640A00004C
:100E3000696E76616C6964206368616E6E656C00D2
:100E4000696E76616C6964206368616E6E656C20A2
:100E5000696E666F000000006874323034302063C1
:100E60006F6578206672616D6520616C6C6F6320C0
:100E70006661696C000000007374615F7363616E8A
:100E80003A20535441206E6F742065786973742141
:100E9000000000006E756C6C207770615F73746188
:100EA0005F61705F7365745F72736E7865000000D8
:100EB00025732025640A0000636E785F6273735F98
:100EC000696E69743A206E756C6C206273730000F1
:100ED00025732025640A000025732025640A00007C
:100EE00025732025640A0000457870656374656485
:100EF0002043434D50206672616D652066726F6DB0
:100F000020253032783A253032783A253032783A16
:100F1000253032783A253032783A253032782064DC
:100F20006964206E6F742068617665204578744925
:100F300056206269742073657420746F203100003C
:100F400043434D50206D676D74206672616D65205E
:100F500066726F6D20253032783A253032783A2526
:100F60003032783A253032783A253032783A2530A6
:100F700032782075736564206E6F6E2D7A65726F9E
:100F80002072657365727665642062697400000082
:100F900043434D50207265706C61792064657465BF
:100FA000637465643A2041313D253032783A25300A
:100FB00032783A253032783A253032783A25303254
:100FC000783A253032782041323D253032783A2542
:100FD0003032783A253032783A253032783A253036
:100FE00032783A2530327820504E3D256C6C752C85
:100FF000205253433D256C6C75207365713D2575FA
:10100000000000006573665F6275665F616C6C6FFF
:10101000635F64796E616D69633A20696E76616CB5
:10102000696420747970653D256400006573665FAE
:101030006275665F616C6C6F633A20696E76616C95
:10104000696420747970653D256400006562756689
:101050005F667265653A20696E76616C69642074BA
:101060007970653D25640000736574207669663A81
:1010700020696E76616C696420696E6465783D25CF
:101080006400000025732025732025750A000000E8
:1010900025732025732025750A000000257320255F
:1010A000732025750A0000002573202573202575FF
:1010B0000A00000025732025732025750A00000012
:1010C00025732025732025750A000000257320252F
:1010D000732025750A0000002573202573202575CF
:1010E0000A00000025732025732025750A000000E2
:1010F00025732025732025750A00000025732025FF
:10110000732025750A00000025732025732025759E
:101110000A00000025732025732025750A000000B1
:1011200025732025732025750A00000025732025CE
:10113000732025750A00000025732025732025756E
:101140000A00000025732025732025750A00000081
:1011500025732025732025750A000000257320259E
:10116000732025750A00000025732025732025753E
:101170000A00000025732025732025750A00000051
:1011800025732025732025750A0000004572726FB3
:1011900072212053686F756C6420656E61626C65A6
:1011A0002057694669206D6F64656D20736C6565B5
:1011B00070207768656E20626F7468205769466991
:1011C00020616E6420426C7565746F6F7468206175
:1011D000726520656E61626C656421212121212187
:1011E0000A00000063726561746520776966692092
:1011F0007461736B3A206661696C656420746F205A
:101200006372656174652071756575650000000025
:101210006372656174652077696669207461736BB8
:101220003A206661696C656420746F206372656141
:1012300074652071756575650000000063726561F5
:1012400074652077696669207461736B3A20666102
:10125000696C656420746F206372656174652073C6
:10126000656D000063726561746520776966692049
:101270007461736B3A206661696C656420746F20D9
:10128000637265617465207461736B00257320253A
:10129000750A000025732025750A00002573202596
:1012A000732025750A00000064657363206973204C
:1012B0006E756C6C00000000257320257320257569
:1012C0000A0000007363686564206973206E756CA2
:1012D0006C2C2069663D2564207469643D2564207A
:1012E000666C6167733D257800000000257320253A
:1012F000732025750A00000072635F656E61626C81
:10130000655F747263206661696C2C206E6F206D5E
:10131000656D000074726320696E6974206661698E
:101320006C2C206E6F206D656D000000757064611F
:1013300074652064656661756C74207472633A200C
:10134000696E76616C6964206966780072634765CE
:101350007431314E486967686573745261746549C8
:1013600064783A20696E76616C6964206D617820DA
:10137000726174653D25640072634765743131475D
:1013800048696768657374526174654964783A2086
:10139000696E76616C6964206D6178207261746534
:1013A0003D2564007263476574313142486967685E
:1013B000657374526174654964783A20696E766128
:1013C0006C6964206D617820726174653D256400EC
:1013D0004661696C656420746F20696E697420725F
:1013E0007820646573632073706163652C20627577
:1013F00066666572206E756D6265723D25640000DB
:10140000457870656374656420746F20696E6974D3
:10141000202564207278206275666665722C2061D2
:10142000637475616C20697320256400616C6C6F56
:101430006320707020776465762066756E63732014
:101440006661696C0A000000427574746F6E20500A
:101450007265737365640000456E746572696E67CA
:101460002053687574646F776E0000004275747461
:101470006F6E2052656C6561736564000000C84240
:101480000000803F00002041000080BF66667E4073
:1014900048E13A40CDCC4C3F5A646B403333534023
:1014A0000000A03FC74B5F409A9959409A99D93F95
:1014B0003D0A5740CDCC4C409A99993ECDCC4C3DFD
:1014C0003333733F000000006666666666A64B40D5
:1014D00000000000000024400000000000408F4099
:1014E0004D505536303530004D505539323530007D
:1014F00049434D32303934380000000049434D34FF
:101500003236383800000000424D49313630000094
:101510004E6F2063616C6962726174696F6E2064E2
:1015200061746120666F756E642C206372656174EE
:10153000696E67206E6577206469726563746F7287
:10154000792E2E2E000000004661696C65642074BF
:101550006F20637265617465206469726563746F7E
:1015600072793A202F63616C6962726174696F6E7F
:1015700073000000466F756E642066696C652069B3
:101580006E7374656164206F66206469726563744C
:101590006F72793A202F63616C6962726174696F4E
:1015A0006E7300004661696C656420746F2072651B
:1015B0006D6F7665206469726563746F72793A2025
:1015C0002F63616C6962726174696F6E73000000F1
:1015D000466F756E642063616C6962726174696FD5
:1015E0006E2064617461206469726563746F7279DE
:1015F00000000000466F756E642063616C69627262
:101600006174696F6E20646174612066696C653A0B
:1016100020257300466F756E642073656E736F725C
:101620002063616C6962726174696F6E20666F72AB
:1016300020257320617420696E646578202564001C
:101640004E6F2074656D706572617475726520638C
:10165000616C6962726174696F6E2064617461208B
:10166000666F756E642C206372656174696E6720A5
:101670006E6577206469726563746F72792E2E2EA1
:10168000000000004661696C656420746F2063721D
:1016900065617465206469726563746F72793A205C
:1016A0002F74656D7063616C6962726174696F6ECD
:1016B00073000000466F756E642066696C65206972
:1016C0006E7374656164206F66206469726563740B
:1016D0006F72793A202F74656D7063616C69627204
:1016E0006174696F6E7300004661696C6564207493
:1016F0006F2072656D6F7665206469726563746FC3
:1017000072793A202F74656D7063616C69627261E1
:1017100074696F6E73000000466F756E64207465A7
:101720006D70657261747572652063616C69627257
:101730006174696F6E2064617461206469726563AD
:10174000746F727900000000466F756E6420696ED8
:10175000636F6D70617469626C652073656E736F21
:10176000722074656D706572617475726520636155
:101770006C6962726174696F6E2028657870656348
:101780007465642025732C20666F756E6420257344
:10179000292073656E736F7249643A25642C207337
:1017A0006B697070696E6700466F756E6420736553
:1017B0006E736F722074656D706572617475726599
:1017C0002063616C6962726174696F6E20666F720A
:1017D0002025732073656E736F7249643A25640027
:1017E000466F756E6420696E636F6D7061746962B7
:1017F0006C652073656E736F722074656D706572B1
:1018000061747572652063616C6962726174696F7D
:101810006E202873697A65206D69736D61746368E1
:10182000292073656E736F7249643A25642C2073A6
:101830006B697070696E67002F74656D7063616CA1
:101840006962726174696F6E732F25640000000015
:10185000536176696E672074656D70657261747529
:1018600072652063616C6962726174696F6E206475
:1018700061746120666F722073656E736F72496464
:101880003A25640053617665642074656D706572F5
:1018900061747572652063616C6962726174696FED
:1018A0006E206461746120666F722073656E736F61
:1018B0007249643A256900002F63616C6962726144
:1018C00074696F6E732F25640000000053617669A0
:1018D0006E672063616C6962726174696F6E206407
:1018E00061746120666F7220256400002F636F6E43
:1018F0006669672E62696E00536176656420636F66
:101900006E66696775726174696F6E00436F6E66AB
:10191000696775726174696F6E3A000020205665C0
:101920007273696F6E3A20256400000020202564E0
:101930002043616C6962726174696F6E733A000072
:10194000202020202D205B2533645D20257300009E
:10195000202020202020202020202020415F422005
:10196000202020202020203A2025662C2025662CAF
:10197000202566002020202020202020202020203C
:10198000415F41696E7620202020203A000000004F
:101990002020202020202020202020202020202047
:1019A00020202020202020202025662C2025662C89
:1019B00020256600202020202020202020202020FC
:1019C000475F6F66662020202020203A2025662C65
:1019D0002025662C20256600202020202020202085
:1019E0002020202054656D70657261747572653AAF
:1019F00020256600202020202020202020202020BC
:101A0000473A2025642C2025642C20256400000002
:101A1000202020202020202020202020413A202586
:101A2000642C2025642C2025640000002020202028
:101A30002020202020202020433A2025642C20250F
:101A4000642C20256400000020202020202020205D
:101A500020202020415F422020203A2025662C2093
:101A600025662C2025660000202020202020202014
:101A700020202020415F41696E763A0020202020FE
:101A80002020202020202020202020202020202056
:101A900025662C2025662C2025660000202020208D
:101AA00020202020202020204D5F422020203A208E
:101AB00025662C2025662C2025660000202020206D
:101AC00020202020202020204D5F41696E763A00A2
:101AD000202020202020202020202020475F6F660B
:101AE0006620203A2025662C2025662C20256600BD
:101AF000202020202020202020202020415F422064
:101B0000203A2025662C2025662C20256600000022
:101B1000202020202020202020202020475F6F66CA
:101B2000663A2025662C2025662C202566000000BC
:101B3000526573657420636F6E6669677572617450
:101B4000696F6E0073706966667300002F6C69744C
:101B5000746C656673000000436F756C64206E6F73
:101B600074206D6F756E74204C6974746C65465387
:101B70002C20666F726D617474696E6700000000DE
:101B8000436F756C64206E6F7420666F726D617444
:101B9000204C6974746C6546532C2061626F7274BA
:101BA000696E6700436F756C64206E6F74206D6F93
:101BB000756E74204C6974746C6546532C20616298
:101BC0006F7274696E670000466F756E6420636F94
:101BD0006E66696775726174696F6E2066696C659F
:101BE00000000000436F6E66696775726174696F0B
:101BF0006E206973206F757464617465643A207631
:101C00002564203C2076256400000000466F756E38
:101C1000642075702D746F2D6461746520636F6E20
:101C200066696775726174696F6E2076256400005D
:101C30004E6F20636F6E66696775726174696F6E4F
:101C40002066696C6520666F756E642C2063726512
:101C50006174696E67206E6577206F6E65000000A5
:101C60004C6F6164656420636F6E6669677572614D
:101C700074696F6E00000000766563746F723A3AA3
:101C80005F4D5F64656661756C745F617070656EF1
:101C9000640000005452414345000000494E464F45
:101CA000000000005741524E0000000046415441E0
:101CB0004C00000044454255470000005B252D358F
:101CC000735D205B25735D2025730A000000000012
:101CD00000000000A2220042BC22004296220042E4
:101CE00094220042982200429A22004248C20042B6
:101CF00050C200429C2200429E220042F6C3004293
:101D0000F6C30042F6C30042F6C30042536C696D4D
:101D1000655652004C45444D616E61676572000026
:101D2000427574746F6E4D6F6E69746F720000004F
:101D30005374617475734D616E6167657200000064
:101D4000436F6E66696775726174696F6E0000003B
:101D5000554450436F6E6E656374696F6E0000008A
:101D6000426174746572794D6F6E69746F720000B0
:101D7000536C696D6556522076302E342E302073A8
:101D800074617274696E672075702E2E2E000000CB
:101D90005374617274696E67206D61696E206C6F37
:101DA0006F70000053656E736F724D616E61676591
:101DB00072000000456D70747953656E736F720028
:101DC00025750000536C696D6556522D4F544100C6
:101DD0004E6F2074656D70657261747572652063F5
:101DE000616C6962726174696F6E206461746120F4
:101DF000666F756E6420666F722073656E736F72A6
:101E00002025642C2069676E6F72696E672E2E2EF6
:101E10000000000054656D70657261747572652014
:101E200063616C6962726174696F6E2069732061AD
:101E300020776F726B2D696E2D70726F677265738C
:101E40007320666561747572653B20616E792063ED
:101E500068616E67657320746F20697473207061A8
:101E600072616D6574657273206F72207570646144
:101E70007465732077696C6C2072656E646572207E
:101E80007468652073617665642074656D70657231
:101E9000617475726520637572766520696E76610E
:101EA0006C696420616E6420756E6C6F6164616240
:101EB0006C652E0000007042536176656420746585
:101EC0006D70657261747572652063616C696272B0
:101ED0006174696F6E20636F6E66696720282530B4
:101EE0002E3166252920666F722073656E736F72BE
:101EF00049643A256900000043616C69627261744B
:101F0000696F6E2077696C6C20726573756D6520E2
:101F100066726F6D207468697320636865636B70A7
:101F20006F696E74206166746572207265626F6F8E
:101F300074000000536F6D657468696E6720776583
:101F40006E742077726F6E670000000000007A44A4
:101F50000000803E0000F0410000704100007AC4A3
:101F6000000034428FC2F53C0000003FCDCC4C3E17
:101F7000000000000000F03FA18F76FFFFFFEF3F61
:101F80000200000055445020626567696E5061632D
:101F90006B65742829206661696C65640000000027
:101FA000486579204F5652203D44203500000000FE
:101FB000526563656976656420696E76616C6964F3
:101FC0002068616E647368616B65207061636B6526
:101FD0007400000048616E647368616B65207375FE
:101FE000636365737366756C2C20736572766572B6
:101FF0002069732025733A256400000053656172DF
:102000006368696E6720666F722074686520736507
:1020100072766572206F6E20746865206C6F6361E4
:102020006C206E6574776F726B2E2E2E0000000090
:10203000302E342E30000000436F6E6E656374697D
:102040006F6E20746F207365727665722074696D8F
:102050006564206F7574000048616E647368616B1D
:102060006520726563656976656420616761696E84
:102070002C2069676E6F72696E67000057726F6E11
:10208000672073656E736F7220696E666F20706172
:10209000636B657400000000496E76616C696420B2
:1020A0006665617475726520666C61677320706126
:1020B000636B65743A20746F6F2073686F7274007D
:1020C00053657276657220737570706F72747320C9
:1020D0007061636B65742062756E646C696E670015
:1020E0005769466948616E646C657200436F6E6E35
:1020F0006563746564207375636365737366756C7B
:102100006C7920746F205353494420272573272C62
:102110002069702061646472657373202573000008
:1021200053657474696E672075702057694669003D
:1021300045726F7320547261636B657220000000FA
:102140004D6178205769466920545820706F776533
:10215000722073657420746F2025312E31662064DF
:10216000426D00004661696C656420746F20736580
:1021700074206D6178205769466920545820706F2B
:102180007765722E20526561736F6E3A20576946EB
:1021900069206E6F7420696E697469616C697A6513
:1021A000642E00004661696C656420746F2073655D
:1021B00074206D6178205769466920545820706FEB
:1021C0007765722E20526561736F6E3A20576946AB
:1021D00069206E6F7420737461727465642E0000E0
:1021E0004661696C656420746F20736574206D614D
:1021F00078205769466920545820706F7765722E91
:1022000020526561736F6E3A20496E76616C696425
:1022100020417267756D656E742E00004661696CB1
:10222000656420746F20736574206D617820576930
:10223000466920545820706F7765722E2052656170
:10224000736F6E3A20556E6B6E6F776E2E206572CF
:10225000726F7220636F64653A2025303478000015
:102260004C6F616465642063726564656E74696156
:102270006C7320666F72205353494420257320618C
:102280006E642070617373206C656E6774682025BE
:10229000640000005374617475733A202564000073
:1022A000436F6E6E656374696F6E20746F2057693B
:1022B0004669206C6F73742C207265636F6E6E6557
:1022C0006374696E672E2E2E0000000043616E2736
:1022D0007420636F6E6E6563742066726F6D20612B
:1022E0006E792063726564656E7469616C732C200D
:1022F0007374617475733A2025642E0057694669BA
:1023000050726F766973696F6E696E6700000000C6
:10231000536D617274436F6E666967207374617286
:10232000746564000000000000000000CA4A00421A
:10233000E44A0042A24A004294220042984A0042E3
:102340009A4A004248C2004250C200429C4A00429F
:102350009E4A0042F6C30042F6C30042F6C3004262
:10236000F6C30042494D55206F6620747970652090
:102370002573206661696C656420746F20696E69DD
:102380007469616C697A650005A3923A019D2340E6
:102390000AD7A33C00C079440AD7233B0AD7233C81
:1023A000000000409A99193F8FC2753D6F12833A21
:1023B000000000000088A34033EA8E15AF6F413F54
:1023C0004275696C64696E6720494D552077697460
:1023D000683A2069643D25642C0A202020202020B2
:1023E00020202020202020202020202020202020ED
:1023F000202020202020696D75547970653D30784B
:10240000253032582C20616464726573733D3078D6
:10241000253032582C20726F746174696F6E3D25BF
:10242000662C0A2020202020202020202020202070
:102430002020202020202020202020202020207349
:10244000636C50696E3D25642C2073646150696E25
:102450003D25642C206578747261506172616D3D18
:1024600025642C206F7074696F6E616C3D2564006B
:1024700053656E736F7220256420666F756E6420DD
:102480006174206164647265737320307825303222
:10249000580000004D616E6461746F72792073653D
:1024A0006E736F72202564206E6F7420666F756E78
:1024B00064206174206164647265737320307825D0
:1024C000303258004572726F6E656F757353656E6A
:1024D000736F72004F7074696F6E616C2073656EFC
:1024E000736F72202564206E6F7420666F756E6442
:1024F00020617420616464726573732030782530C4
:1025000032580000424E4F30383053656E736F7250
:1025100000000000424E4F30353553656E736F72C8
:10252000000000004D50553932353053656E736FE1
:1025300072000000424D4931363053656E736F7240
:10254000000000004D50553630353053656E736FC6
:102550007200000049434D323039343853656E7390
:102560006F72000049434D343236383853656E730C
:102570006F720000DB0F494025642073656E736F36
:102580007228732920636F6E6669677572656400CF
:1025900043616E27742066696E642049324320646B
